{
  "contractName": "SolnSquareVerifier",
  "abi": [
    {
      "inputs": [
        {
          "internalType": "string",
          "name": "name",
          "type": "string"
        },
        {
          "internalType": "string",
          "name": "symbol",
          "type": "string"
        }
      ],
      "payable": false,
      "stateMutability": "nonpayable",
      "type": "constructor"
    },
    {
      "anonymous": false,
      "inputs": [
        {
          "indexed": true,
          "internalType": "address",
          "name": "owner",
          "type": "address"
        },
        {
          "indexed": true,
          "internalType": "address",
          "name": "approved",
          "type": "address"
        },
        {
          "indexed": true,
          "internalType": "uint256",
          "name": "tokenId",
          "type": "uint256"
        }
      ],
      "name": "Approval",
      "type": "event"
    },
    {
      "anonymous": false,
      "inputs": [
        {
          "indexed": true,
          "internalType": "address",
          "name": "owner",
          "type": "address"
        },
        {
          "indexed": true,
          "internalType": "address",
          "name": "operator",
          "type": "address"
        },
        {
          "indexed": false,
          "internalType": "bool",
          "name": "approved",
          "type": "bool"
        }
      ],
      "name": "ApprovalForAll",
      "type": "event"
    },
    {
      "anonymous": false,
      "inputs": [
        {
          "indexed": false,
          "internalType": "address",
          "name": "sender",
          "type": "address"
        }
      ],
      "name": "Paused",
      "type": "event"
    },
    {
      "anonymous": false,
      "inputs": [
        {
          "indexed": false,
          "internalType": "uint256",
          "name": "index",
          "type": "uint256"
        },
        {
          "indexed": false,
          "internalType": "address",
          "name": "solutionAddress",
          "type": "address"
        }
      ],
      "name": "SolutionAdded",
      "type": "event"
    },
    {
      "anonymous": false,
      "inputs": [
        {
          "indexed": true,
          "internalType": "address",
          "name": "from",
          "type": "address"
        },
        {
          "indexed": true,
          "internalType": "address",
          "name": "to",
          "type": "address"
        },
        {
          "indexed": true,
          "internalType": "uint256",
          "name": "tokenId",
          "type": "uint256"
        }
      ],
      "name": "Transfer",
      "type": "event"
    },
    {
      "anonymous": false,
      "inputs": [
        {
          "indexed": false,
          "internalType": "address",
          "name": "newOwner",
          "type": "address"
        }
      ],
      "name": "TransferedOwnership",
      "type": "event"
    },
    {
      "anonymous": false,
      "inputs": [
        {
          "indexed": false,
          "internalType": "address",
          "name": "sender",
          "type": "address"
        }
      ],
      "name": "Unpaused",
      "type": "event"
    },
    {
      "constant": false,
      "inputs": [
        {
          "internalType": "bytes32",
          "name": "_myid",
          "type": "bytes32"
        },
        {
          "internalType": "string",
          "name": "_result",
          "type": "string"
        }
      ],
      "name": "__callback",
      "outputs": [],
      "payable": false,
      "stateMutability": "nonpayable",
      "type": "function"
    },
    {
      "constant": false,
      "inputs": [
        {
          "internalType": "bytes32",
          "name": "_myid",
          "type": "bytes32"
        },
        {
          "internalType": "string",
          "name": "_result",
          "type": "string"
        },
        {
          "internalType": "bytes",
          "name": "_proof",
          "type": "bytes"
        }
      ],
      "name": "__callback",
      "outputs": [],
      "payable": false,
      "stateMutability": "nonpayable",
      "type": "function"
    },
    {
      "constant": false,
      "inputs": [
        {
          "internalType": "address",
          "name": "to",
          "type": "address"
        },
        {
          "internalType": "uint256",
          "name": "tokenId",
          "type": "uint256"
        }
      ],
      "name": "approve",
      "outputs": [],
      "payable": false,
      "stateMutability": "nonpayable",
      "type": "function"
    },
    {
      "constant": true,
      "inputs": [
        {
          "internalType": "address",
          "name": "owner",
          "type": "address"
        }
      ],
      "name": "balanceOf",
      "outputs": [
        {
          "internalType": "uint256",
          "name": "",
          "type": "uint256"
        }
      ],
      "payable": false,
      "stateMutability": "view",
      "type": "function"
    },
    {
      "constant": true,
      "inputs": [
        {
          "internalType": "uint256",
          "name": "tokenId",
          "type": "uint256"
        }
      ],
      "name": "getApproved",
      "outputs": [
        {
          "internalType": "address",
          "name": "",
          "type": "address"
        }
      ],
      "payable": false,
      "stateMutability": "view",
      "type": "function"
    },
    {
      "constant": true,
      "inputs": [],
      "name": "getBaseTokenURI",
      "outputs": [
        {
          "internalType": "string",
          "name": "",
          "type": "string"
        }
      ],
      "payable": false,
      "stateMutability": "view",
      "type": "function"
    },
    {
      "constant": true,
      "inputs": [],
      "name": "getName",
      "outputs": [
        {
          "internalType": "string",
          "name": "",
          "type": "string"
        }
      ],
      "payable": false,
      "stateMutability": "view",
      "type": "function"
    },
    {
      "constant": true,
      "inputs": [],
      "name": "getOwner",
      "outputs": [
        {
          "internalType": "address",
          "name": "",
          "type": "address"
        }
      ],
      "payable": false,
      "stateMutability": "view",
      "type": "function"
    },
    {
      "constant": true,
      "inputs": [],
      "name": "getSymbol",
      "outputs": [
        {
          "internalType": "string",
          "name": "",
          "type": "string"
        }
      ],
      "payable": false,
      "stateMutability": "view",
      "type": "function"
    },
    {
      "constant": true,
      "inputs": [
        {
          "internalType": "address",
          "name": "owner",
          "type": "address"
        },
        {
          "internalType": "address",
          "name": "operator",
          "type": "address"
        }
      ],
      "name": "isApprovedForAll",
      "outputs": [
        {
          "internalType": "bool",
          "name": "",
          "type": "bool"
        }
      ],
      "payable": false,
      "stateMutability": "view",
      "type": "function"
    },
    {
      "constant": false,
      "inputs": [
        {
          "internalType": "address",
          "name": "to",
          "type": "address"
        },
        {
          "internalType": "uint256",
          "name": "tokenId",
          "type": "uint256"
        }
      ],
      "name": "mint",
      "outputs": [
        {
          "internalType": "bool",
          "name": "",
          "type": "bool"
        }
      ],
      "payable": false,
      "stateMutability": "nonpayable",
      "type": "function"
    },
    {
      "constant": true,
      "inputs": [
        {
          "internalType": "uint256",
          "name": "tokenId",
          "type": "uint256"
        }
      ],
      "name": "ownerOf",
      "outputs": [
        {
          "internalType": "address",
          "name": "",
          "type": "address"
        }
      ],
      "payable": false,
      "stateMutability": "view",
      "type": "function"
    },
    {
      "constant": false,
      "inputs": [
        {
          "internalType": "address",
          "name": "from",
          "type": "address"
        },
        {
          "internalType": "address",
          "name": "to",
          "type": "address"
        },
        {
          "internalType": "uint256",
          "name": "tokenId",
          "type": "uint256"
        }
      ],
      "name": "safeTransferFrom",
      "outputs": [],
      "payable": false,
      "stateMutability": "nonpayable",
      "type": "function"
    },
    {
      "constant": false,
      "inputs": [
        {
          "internalType": "address",
          "name": "from",
          "type": "address"
        },
        {
          "internalType": "address",
          "name": "to",
          "type": "address"
        },
        {
          "internalType": "uint256",
          "name": "tokenId",
          "type": "uint256"
        },
        {
          "internalType": "bytes",
          "name": "_data",
          "type": "bytes"
        }
      ],
      "name": "safeTransferFrom",
      "outputs": [],
      "payable": false,
      "stateMutability": "nonpayable",
      "type": "function"
    },
    {
      "constant": false,
      "inputs": [
        {
          "internalType": "address",
          "name": "to",
          "type": "address"
        },
        {
          "internalType": "bool",
          "name": "approved",
          "type": "bool"
        }
      ],
      "name": "setApprovalForAll",
      "outputs": [],
      "payable": false,
      "stateMutability": "nonpayable",
      "type": "function"
    },
    {
      "constant": false,
      "inputs": [
        {
          "internalType": "bool",
          "name": "status",
          "type": "bool"
        }
      ],
      "name": "setPaused",
      "outputs": [],
      "payable": false,
      "stateMutability": "nonpayable",
      "type": "function"
    },
    {
      "constant": true,
      "inputs": [
        {
          "internalType": "bytes4",
          "name": "interfaceId",
          "type": "bytes4"
        }
      ],
      "name": "supportsInterface",
      "outputs": [
        {
          "internalType": "bool",
          "name": "",
          "type": "bool"
        }
      ],
      "payable": false,
      "stateMutability": "view",
      "type": "function"
    },
    {
      "constant": true,
      "inputs": [
        {
          "internalType": "uint256",
          "name": "index",
          "type": "uint256"
        }
      ],
      "name": "tokenByIndex",
      "outputs": [
        {
          "internalType": "uint256",
          "name": "",
          "type": "uint256"
        }
      ],
      "payable": false,
      "stateMutability": "view",
      "type": "function"
    },
    {
      "constant": true,
      "inputs": [
        {
          "internalType": "address",
          "name": "owner",
          "type": "address"
        },
        {
          "internalType": "uint256",
          "name": "index",
          "type": "uint256"
        }
      ],
      "name": "tokenOfOwnerByIndex",
      "outputs": [
        {
          "internalType": "uint256",
          "name": "",
          "type": "uint256"
        }
      ],
      "payable": false,
      "stateMutability": "view",
      "type": "function"
    },
    {
      "constant": true,
      "inputs": [
        {
          "internalType": "uint256",
          "name": "tokenId",
          "type": "uint256"
        }
      ],
      "name": "tokenURI",
      "outputs": [
        {
          "internalType": "string",
          "name": "",
          "type": "string"
        }
      ],
      "payable": false,
      "stateMutability": "view",
      "type": "function"
    },
    {
      "constant": true,
      "inputs": [],
      "name": "totalSupply",
      "outputs": [
        {
          "internalType": "uint256",
          "name": "",
          "type": "uint256"
        }
      ],
      "payable": false,
      "stateMutability": "view",
      "type": "function"
    },
    {
      "constant": false,
      "inputs": [
        {
          "internalType": "address",
          "name": "from",
          "type": "address"
        },
        {
          "internalType": "address",
          "name": "to",
          "type": "address"
        },
        {
          "internalType": "uint256",
          "name": "tokenId",
          "type": "uint256"
        }
      ],
      "name": "transferFrom",
      "outputs": [],
      "payable": false,
      "stateMutability": "nonpayable",
      "type": "function"
    },
    {
      "constant": false,
      "inputs": [
        {
          "internalType": "address",
          "name": "newOwner",
          "type": "address"
        }
      ],
      "name": "transferOwnership",
      "outputs": [],
      "payable": false,
      "stateMutability": "nonpayable",
      "type": "function"
    },
    {
      "constant": false,
      "inputs": [
        {
          "internalType": "address",
          "name": "to",
          "type": "address"
        },
        {
          "internalType": "uint256",
          "name": "tokenId",
          "type": "uint256"
        },
        {
          "components": [
            {
              "components": [
                {
                  "internalType": "uint256",
                  "name": "X",
                  "type": "uint256"
                },
                {
                  "internalType": "uint256",
                  "name": "Y",
                  "type": "uint256"
                }
              ],
              "internalType": "struct Pairing.G1Point",
              "name": "a",
              "type": "tuple"
            },
            {
              "components": [
                {
                  "internalType": "uint256[2]",
                  "name": "X",
                  "type": "uint256[2]"
                },
                {
                  "internalType": "uint256[2]",
                  "name": "Y",
                  "type": "uint256[2]"
                }
              ],
              "internalType": "struct Pairing.G2Point",
              "name": "b",
              "type": "tuple"
            },
            {
              "components": [
                {
                  "internalType": "uint256",
                  "name": "X",
                  "type": "uint256"
                },
                {
                  "internalType": "uint256",
                  "name": "Y",
                  "type": "uint256"
                }
              ],
              "internalType": "struct Pairing.G1Point",
              "name": "c",
              "type": "tuple"
            }
          ],
          "internalType": "struct Verifier.Proof",
          "name": "proof",
          "type": "tuple"
        },
        {
          "internalType": "uint256[2]",
          "name": "input",
          "type": "uint256[2]"
        }
      ],
      "name": "mintNFT",
      "outputs": [],
      "payable": false,
      "stateMutability": "nonpayable",
      "type": "function"
    }
  ],
  "bytecode": "0x60806040526040516200001290620002cd565b604051809103906000f0801580156200002f573d6000803e3d6000fd5b50601360006101000a81548173ffffffffffffffffffffffffffffffffffffffff021916908373ffffffffffffffffffffffffffffffffffffffff1602179055503480156200007d57600080fd5b5060405162004f7138038062004f718339818101604052620000a39190810190620003e6565b818181816040518060600160405280603f815260200162004f32603f9139336000806101000a81548173ffffffffffffffffffffffffffffffffffffffff021916908373ffffffffffffffffffffffffffffffffffffffff1602179055507fddd10b314c26c20098919e5d9ab61e552e4b296997e9f663d4f278d1cf8edb066000809054906101000a900473ffffffffffffffffffffffffffffffffffffffff166040516200015391906200046a565b60405180910390a160008060146101000a81548160ff0219169083151502179055506200018d6301ffc9a760e01b6200022d60201b60201c565b620001a56380ac58cd60e01b6200022d60201b60201c565b620001bd63780e9d6360e01b6200022d60201b60201c565b82600f9080519060200190620001d5929190620002db565b508160109080519060200190620001ee929190620002db565b50806011908051906020019062000207929190620002db565b5062000220635b5e139f60e01b6200022d60201b60201c565b505050505050506200054c565b63ffffffff60e01b817bffffffffffffffffffffffffffffffffffffffffffffffffffffffff191614156200026157600080fd5b6001806000837bffffffffffffffffffffffffffffffffffffffffffffffffffffffff19167bffffffffffffffffffffffffffffffffffffffffffffffffffffffff1916815260200190815260200160002060006101000a81548160ff02191690831515021790555050565b6110e18062003e5183390190565b828054600181600116156101000203166002900490600052602060002090601f016020900481019282601f106200031e57805160ff19168380011785556200034f565b828001600101855582156200034f579182015b828111156200034e57825182559160200191906001019062000331565b5b5090506200035e919062000362565b5090565b6200038791905b808211156200038357600081600090555060010162000369565b5090565b90565b600082601f8301126200039c57600080fd5b8151620003b3620003ad82620004b5565b62000487565b91508082526020830160208301858383011115620003d057600080fd5b620003dd83828462000516565b50505092915050565b60008060408385031215620003fa57600080fd5b600083015167ffffffffffffffff8111156200041557600080fd5b62000423858286016200038a565b925050602083015167ffffffffffffffff8111156200044157600080fd5b6200044f858286016200038a565b9150509250929050565b6200046481620004e2565b82525050565b600060208201905062000481600083018462000459565b92915050565b6000604051905081810181811067ffffffffffffffff82111715620004ab57600080fd5b8060405250919050565b600067ffffffffffffffff821115620004cd57600080fd5b601f19601f8301169050602081019050919050565b6000620004ef82620004f6565b9050919050565b600073ffffffffffffffffffffffffffffffffffffffff82169050919050565b60005b838110156200053657808201518184015260208101905062000519565b8381111562000546576000848401525b50505050565b6138f5806200055c6000396000f3fe608060405234801561001057600080fd5b50600436106101585760003560e01c806340c10f19116100c3578063a22cb4651161007c578063a22cb465146103e9578063b88d4fde14610405578063bdc32be014610421578063c87b56dd1461043f578063e985e9c51461046f578063f2fde38b1461049f57610158565b806340c10f19146102ef57806342842e0e1461031f5780634f6ccce71461033b5780636352211e1461036b57806370a082311461039b578063893d20e8146103cb57610158565b806318160ddd1161011557806318160ddd146102315780631fd960da1461024f57806323b872dd1461026b57806327dc297e146102875780632f745c59146102a357806338bbfa50146102d357610158565b806301ffc9a71461015d578063081812fc1461018d578063095ea7b3146101bd57806315070401146101d957806316c38b3c146101f757806317d7de7c14610213575b600080fd5b61017760048036036101729190810190612cc3565b6104bb565b6040516101849190613396565b60405180910390f35b6101a760048036036101a29190810190612d15565b610523565b6040516101b49190613314565b60405180910390f35b6101d760048036036101d29190810190612afd565b610560565b005b6101e1610717565b6040516101ee91906133b1565b60405180910390f35b610211600480360361020c9190810190612b9e565b6107b9565b005b61021b610944565b60405161022891906133b1565b60405180910390f35b6102396109e6565b604051610246919061355e565b60405180910390f35b61026960048036036102649190810190612b39565b6109f3565b005b610285600480360361028091908101906129f7565b610c5c565b005b6102a1600480360361029c9190810190612bf0565b610c7f565b005b6102bd60048036036102b89190810190612afd565b610cc2565b6040516102ca919061355e565b60405180910390f35b6102ed60048036036102e89190810190612c44565b610d35565b005b61030960048036036103049190810190612afd565b610d3a565b6040516103169190613396565b60405180910390f35b610339600480360361033491908101906129f7565b610de8565b005b61035560048036036103509190810190612d15565b610e08565b604051610362919061355e565b60405180910390f35b61038560048036036103809190810190612d15565b610e3c565b6040516103929190613314565b60405180910390f35b6103b560048036036103b09190810190612992565b610e79565b6040516103c2919061355e565b60405180910390f35b6103d3610ec9565b6040516103e09190613314565b60405180910390f35b61040360048036036103fe9190810190612ac1565b610ef2565b005b61041f600480360361041a9190810190612a46565b611028565b005b61042961104e565b60405161043691906133b1565b60405180910390f35b61045960048036036104549190810190612d15565b6110f0565b60405161046691906133b1565b60405180910390f35b610489600480360361048491908101906129bb565b6111b7565b6040516104969190613396565b60405180910390f35b6104b960048036036104b49190810190612992565b61124b565b005b600060016000837bffffffffffffffffffffffffffffffffffffffffffffffffffffffff19167bffffffffffffffffffffffffffffffffffffffffffffffffffffffff1916815260200190815260200160002060009054906101000a900460ff169050919050565b60006003600083815260200190815260200160002060009054906101000a900473ffffffffffffffffffffffffffffffffffffffff169050919050565b61056981610e3c565b73ffffffffffffffffffffffffffffffffffffffff168273ffffffffffffffffffffffffffffffffffffffff1614156105d7576040517f08c379a00000000000000000000000000000000000000000000000000000000081526004016105ce906133f3565b60405180910390fd5b6105e081610e3c565b73ffffffffffffffffffffffffffffffffffffffff163373ffffffffffffffffffffffffffffffffffffffff161480610627575061062661062082610e3c565b836111b7565b5b610666576040517f08c379a000000000000000000000000000000000000000000000000000000000815260040161065d906134b3565b60405180910390fd5b816003600083815260200190815260200160002060006101000a81548173ffffffffffffffffffffffffffffffffffffffff021916908373ffffffffffffffffffffffffffffffffffffffff160217905550808273ffffffffffffffffffffffffffffffffffffffff163373ffffffffffffffffffffffffffffffffffffffff167f8c5be1e5ebec7d5bd14f71427d1e84f3dd0314c0f7b2291e5b200ac8c7c3b92560405160405180910390a45050565b606060108054600181600116156101000203166002900480601f0160208091040260200160405190810160405280929190818152602001828054600181600116156101000203166002900480156107af5780601f10610784576101008083540402835291602001916107af565b820191906000526020600020905b81548152906001019060200180831161079257829003601f168201915b5050505050905090565b6000809054906101000a900473ffffffffffffffffffffffffffffffffffffffff1673ffffffffffffffffffffffffffffffffffffffff163373ffffffffffffffffffffffffffffffffffffffff1614610848576040517f08c379a000000000000000000000000000000000000000000000000000000000815260040161083f906134f3565b60405180910390fd5b801515600060149054906101000a900460ff161515141561089e576040517f08c379a000000000000000000000000000000000000000000000000000000000815260040161089590613453565b60405180910390fd5b80600060146101000a81548160ff021916908315150217905550600060149054906101000a900460ff1615610909577f62e78cea01bee320cd4e420270b5ea74000d11b0c9f74754ebdbfc544b05a258336040516108fc919061332f565b60405180910390a1610941565b7f5db9ee0a495bf2e6ff9c91a7834c1ba4fdd244a5e8aa4e537bd38aeae4b073aa33604051610938919061332f565b60405180910390a15b50565b6060600f8054600181600116156101000203166002900480601f0160208091040260200160405190810160405280929190818152602001828054600181600116156101000203166002900480156109dc5780601f106109b1576101008083540402835291602001916109dc565b820191906000526020600020905b8154815290600101906020018083116109bf57829003601f168201915b5050505050905090565b6000600880549050905090565b6000809054906101000a900473ffffffffffffffffffffffffffffffffffffffff1673ffffffffffffffffffffffffffffffffffffffff163373ffffffffffffffffffffffffffffffffffffffff1614610a82576040517f08c379a0000000000000000000000000000000000000000000000000000000008152600401610a79906134f3565b60405180910390fd5b601360009054906101000a900473ffffffffffffffffffffffffffffffffffffffff1673ffffffffffffffffffffffffffffffffffffffff166343cd76fc83836040518363ffffffff1660e01b8152600401610adf929190613533565b60206040518083038186803b158015610af757600080fd5b505afa158015610b0b573d6000803e3d6000fd5b505050506040513d601f19601f82011682018060405250610b2f9190810190612bc7565b610b6e576040517f08c379a0000000000000000000000000000000000000000000000000000000008152600401610b6590613473565b60405180910390fd5b60008385604051602001610b839291906132e8565b604051602081830303815290604052805190602001209050600073ffffffffffffffffffffffffffffffffffffffff166015600083815260200190815260200160002060010160009054906101000a900473ffffffffffffffffffffffffffffffffffffffff1673ffffffffffffffffffffffffffffffffffffffff1614610c40576040517f08c379a0000000000000000000000000000000000000000000000000000000008152600401610c37906134d3565b60405180910390fd5b610c4a8585610d3a565b50610c5584866113e5565b5050505050565b610c663382611570565b610c6f57600080fd5b610c7a838383611605565b505050565b610cbe828260006040519080825280601f01601f191660200182016040528015610cb85781602001600182028038833980820191505090505b50610d35565b5050565b6000610ccd83610e79565b8210610cd857600080fd5b600660008473ffffffffffffffffffffffffffffffffffffffff1673ffffffffffffffffffffffffffffffffffffffff1681526020019081526020016000208281548110610d2257fe5b9060005260206000200154905092915050565b505050565b60008060009054906101000a900473ffffffffffffffffffffffffffffffffffffffff1673ffffffffffffffffffffffffffffffffffffffff163373ffffffffffffffffffffffffffffffffffffffff1614610dcb576040517f08c379a0000000000000000000000000000000000000000000000000000000008152600401610dc2906134f3565b60405180910390fd5b610dd58383611629565b610dde8261164a565b6001905092915050565b610e0383838360405180602001604052806000815250611028565b505050565b6000610e126109e6565b8210610e1d57600080fd5b60088281548110610e2a57fe5b90600052602060002001549050919050565b60006002600083815260200190815260200160002060009054906101000a900473ffffffffffffffffffffffffffffffffffffffff169050919050565b6000610ec2600460008473ffffffffffffffffffffffffffffffffffffffff1673ffffffffffffffffffffffffffffffffffffffff168152602001908152602001600020611732565b9050919050565b60008060009054906101000a900473ffffffffffffffffffffffffffffffffffffffff16905090565b3373ffffffffffffffffffffffffffffffffffffffff168273ffffffffffffffffffffffffffffffffffffffff161415610f2b57600080fd5b80600560003373ffffffffffffffffffffffffffffffffffffffff1673ffffffffffffffffffffffffffffffffffffffff16815260200190815260200160002060008473ffffffffffffffffffffffffffffffffffffffff1673ffffffffffffffffffffffffffffffffffffffff16815260200190815260200160002060006101000a81548160ff0219169083151502179055508173ffffffffffffffffffffffffffffffffffffffff163373ffffffffffffffffffffffffffffffffffffffff167f17307eab39ab6107e8899845ad3d59bd9653f200f220920489ca2b5937696c318360405161101c9190613396565b60405180910390a35050565b611033848484610c5c565b61103f84848484611740565b61104857600080fd5b50505050565b606060118054600181600116156101000203166002900480601f0160208091040260200160405190810160405280929190818152602001828054600181600116156101000203166002900480156110e65780601f106110bb576101008083540402835291602001916110e6565b820191906000526020600020905b8154815290600101906020018083116110c957829003601f168201915b5050505050905090565b60606110fb82611857565b61110457600080fd5b601260008381526020019081526020016000208054600181600116156101000203166002900480601f0160208091040260200160405190810160405280929190818152602001828054600181600116156101000203166002900480156111ab5780601f10611180576101008083540402835291602001916111ab565b820191906000526020600020905b81548152906001019060200180831161118e57829003601f168201915b50505050509050919050565b6000600560008473ffffffffffffffffffffffffffffffffffffffff1673ffffffffffffffffffffffffffffffffffffffff16815260200190815260200160002060008373ffffffffffffffffffffffffffffffffffffffff1673ffffffffffffffffffffffffffffffffffffffff16815260200190815260200160002060009054906101000a900460ff16905092915050565b6000809054906101000a900473ffffffffffffffffffffffffffffffffffffffff1673ffffffffffffffffffffffffffffffffffffffff163373ffffffffffffffffffffffffffffffffffffffff16146112da576040517f08c379a00000000000000000000000000000000000000000000000000000000081526004016112d1906134f3565b60405180910390fd5b600073ffffffffffffffffffffffffffffffffffffffff168173ffffffffffffffffffffffffffffffffffffffff16141561134a576040517f08c379a000000000000000000000000000000000000000000000000000000000815260040161134190613493565b60405180910390fd5b806000806101000a81548173ffffffffffffffffffffffffffffffffffffffff021916908373ffffffffffffffffffffffffffffffffffffffff1602179055507fddd10b314c26c20098919e5d9ab61e552e4b296997e9f663d4f278d1cf8edb066000809054906101000a900473ffffffffffffffffffffffffffffffffffffffff166040516113da9190613314565b60405180910390a150565b6113ed612575565b60405180604001604052808481526020018373ffffffffffffffffffffffffffffffffffffffff168152509050601481908060018154018082558091505090600182039060005260206000209060020201600090919290919091506000820151816000015560208201518160010160006101000a81548173ffffffffffffffffffffffffffffffffffffffff021916908373ffffffffffffffffffffffffffffffffffffffff160217905550505050600083836040516020016114b19291906132e8565b60405160208183030381529060405280519060200120905081601560008381526020019081526020016000206000820151816000015560208201518160010160006101000a81548173ffffffffffffffffffffffffffffffffffffffff021916908373ffffffffffffffffffffffffffffffffffffffff1602179055509050507f078793128cefb19aac38a33f9e5df39f67716907f6d747e8065545699e0b2b8d8484604051611562929190613579565b60405180910390a150505050565b60008061157c83610e3c565b90508073ffffffffffffffffffffffffffffffffffffffff168473ffffffffffffffffffffffffffffffffffffffff1614806115eb57508373ffffffffffffffffffffffffffffffffffffffff166115d384610523565b73ffffffffffffffffffffffffffffffffffffffff16145b806115fc57506115fb81856111b7565b5b91505092915050565b6116108383836118c9565b61161a8382611af8565b6116248282611c96565b505050565b6116338282611d5d565b61163d8282611c96565b61164681611f0f565b5050565b61165381611857565b61165c57600080fd5b61170860118054600181600116156101000203166002900480601f0160208091040260200160405190810160405280929190818152602001828054600181600116156101000203166002900480156116f55780601f106116ca576101008083540402835291602001916116f5565b820191906000526020600020905b8154815290600101906020018083116116d857829003601f168201915b505050505061170383611f5b565b612088565b60126000838152602001908152602001600020908051906020019061172e9291906125a5565b5050565b600081600001549050919050565b60006117618473ffffffffffffffffffffffffffffffffffffffff166120cc565b61176e576001905061184f565b60008473ffffffffffffffffffffffffffffffffffffffff1663150b7a02338887876040518563ffffffff1660e01b81526004016117af949392919061334a565b602060405180830381600087803b1580156117c957600080fd5b505af11580156117dd573d6000803e3d6000fd5b505050506040513d601f19601f820116820180604052506118019190810190612cec565b905063150b7a0260e01b7bffffffffffffffffffffffffffffffffffffffffffffffffffffffff1916817bffffffffffffffffffffffffffffffffffffffffffffffffffffffff1916149150505b949350505050565b6000806002600084815260200190815260200160002060009054906101000a900473ffffffffffffffffffffffffffffffffffffffff169050600073ffffffffffffffffffffffffffffffffffffffff168173ffffffffffffffffffffffffffffffffffffffff161415915050919050565b6118d281610e3c565b73ffffffffffffffffffffffffffffffffffffffff168373ffffffffffffffffffffffffffffffffffffffff161461193f576040517f08c379a000000000000000000000000000000000000000000000000000000000815260040161193690613433565b60405180910390fd5b600073ffffffffffffffffffffffffffffffffffffffff168273ffffffffffffffffffffffffffffffffffffffff1614156119af576040517f08c379a00000000000000000000000000000000000000000000000000000000081526004016119a6906133d3565b60405180910390fd5b6119b881612117565b6119ff600460008573ffffffffffffffffffffffffffffffffffffffff1673ffffffffffffffffffffffffffffffffffffffff1681526020019081526020016000206121d5565b611a46600460008473ffffffffffffffffffffffffffffffffffffffff1673ffffffffffffffffffffffffffffffffffffffff1681526020019081526020016000206121f8565b816002600083815260200190815260200160002060006101000a81548173ffffffffffffffffffffffffffffffffffffffff021916908373ffffffffffffffffffffffffffffffffffffffff160217905550808273ffffffffffffffffffffffffffffffffffffffff168473ffffffffffffffffffffffffffffffffffffffff167fddf252ad1be2c89b69c2b068fc378daa952ba7f163c4a11628f55a4df523b3ef60405160405180910390a4505050565b6000611b506001600660008673ffffffffffffffffffffffffffffffffffffffff1673ffffffffffffffffffffffffffffffffffffffff1681526020019081526020016000208054905061220e90919063ffffffff16565b9050600060076000848152602001908152602001600020549050818114611c3d576000600660008673ffffffffffffffffffffffffffffffffffffffff1673ffffffffffffffffffffffffffffffffffffffff1681526020019081526020016000208381548110611bbd57fe5b9060005260206000200154905080600660008773ffffffffffffffffffffffffffffffffffffffff1673ffffffffffffffffffffffffffffffffffffffff1681526020019081526020016000208381548110611c1557fe5b9060005260206000200181905550816007600083815260200190815260200160002081905550505b600660008573ffffffffffffffffffffffffffffffffffffffff1673ffffffffffffffffffffffffffffffffffffffff168152602001908152602001600020805480919060019003611c8f9190612625565b5050505050565b600660008373ffffffffffffffffffffffffffffffffffffffff1673ffffffffffffffffffffffffffffffffffffffff168152602001908152602001600020805490506007600083815260200190815260200160002081905550600660008373ffffffffffffffffffffffffffffffffffffffff1673ffffffffffffffffffffffffffffffffffffffff1681526020019081526020016000208190806001815401808255809150509060018203906000526020600020016000909192909190915055505050565b611d6681611857565b15611da6576040517f08c379a0000000000000000000000000000000000000000000000000000000008152600401611d9d90613413565b60405180910390fd5b600073ffffffffffffffffffffffffffffffffffffffff168273ffffffffffffffffffffffffffffffffffffffff161415611e16576040517f08c379a0000000000000000000000000000000000000000000000000000000008152600401611e0d90613513565b60405180910390fd5b816002600083815260200190815260200160002060006101000a81548173ffffffffffffffffffffffffffffffffffffffff021916908373ffffffffffffffffffffffffffffffffffffffff160217905550611eaf600460008473ffffffffffffffffffffffffffffffffffffffff1673ffffffffffffffffffffffffffffffffffffffff1681526020019081526020016000206121f8565b808273ffffffffffffffffffffffffffffffffffffffff16600073ffffffffffffffffffffffffffffffffffffffff167fddf252ad1be2c89b69c2b068fc378daa952ba7f163c4a11628f55a4df523b3ef60405160405180910390a45050565b6008805490506009600083815260200190815260200160002081905550600881908060018154018082558091505090600182039060005260206000200160009091929091909150555050565b60606000821415611fa3576040518060400160405280600181526020017f30000000000000000000000000000000000000000000000000000000000000008152509050612083565b600082905060005b60008214611fcd578080600101915050600a8281611fc557fe5b049150611fab565b6060816040519080825280601f01601f1916602001820160405280156120025781602001600182028038833980820191505090505b50905060006001830390505b6000861461207b57600a868161202057fe5b0660300160f81b8282806001900393508151811061203a57fe5b60200101907effffffffffffffffffffffffffffffffffffffffffffffffffffffffffffff1916908160001a905350600a868161207357fe5b04955061200e565b819450505050505b919050565b60606120c48383604051806020016040528060008152506040518060200160405280600081525060405180602001604052806000815250612258565b905092915050565b60008060007fc5d2460186f7233c927e7db2dcc703c0e500b653ca82273b7bfad8045d85a47060001b9050833f915080821415801561210e57506000801b8214155b92505050919050565b600073ffffffffffffffffffffffffffffffffffffffff166003600083815260200190815260200160002060009054906101000a900473ffffffffffffffffffffffffffffffffffffffff1673ffffffffffffffffffffffffffffffffffffffff16146121d25760006003600083815260200190815260200160002060006101000a81548173ffffffffffffffffffffffffffffffffffffffff021916908373ffffffffffffffffffffffffffffffffffffffff1602179055505b50565b6121ed6001826000015461220e90919063ffffffff16565b816000018190555050565b6001816000016000828254019250508190555050565b600061225083836040518060400160405280601e81526020017f536166654d6174683a207375627472616374696f6e206f766572666c6f77000081525061251a565b905092915050565b6060808690506060869050606086905060608690506060869050606081518351855187518951010101016040519080825280601f01601f1916602001820160405280156122b45781602001600182028038833980820191505090505b509050606081905060008090506000809050600090505b8851811015612339578881815181106122e057fe5b602001015160f81c60f81b8383806001019450815181106122fd57fe5b60200101907effffffffffffffffffffffffffffffffffffffffffffffffffffffffffffff1916908160001a90535080806001019150506122cb565b600090505b87518110156123ac5787818151811061235357fe5b602001015160f81c60f81b83838060010194508151811061237057fe5b60200101907effffffffffffffffffffffffffffffffffffffffffffffffffffffffffffff1916908160001a905350808060010191505061233e565b600090505b865181101561241f578681815181106123c657fe5b602001015160f81c60f81b8383806001019450815181106123e357fe5b60200101907effffffffffffffffffffffffffffffffffffffffffffffffffffffffffffff1916908160001a90535080806001019150506123b1565b600090505b85518110156124925785818151811061243957fe5b602001015160f81c60f81b83838060010194508151811061245657fe5b60200101907effffffffffffffffffffffffffffffffffffffffffffffffffffffffffffff1916908160001a9053508080600101915050612424565b600090505b8451811015612505578481815181106124ac57fe5b602001015160f81c60f81b8383806001019450815181106124c957fe5b60200101907effffffffffffffffffffffffffffffffffffffffffffffffffffffffffffff1916908160001a9053508080600101915050612497565b82995050505050505050505095945050505050565b6000838311158290612562576040517f08c379a000000000000000000000000000000000000000000000000000000000815260040161255991906133b1565b60405180910390fd5b5060008385039050809150509392505050565b604051806040016040528060008152602001600073ffffffffffffffffffffffffffffffffffffffff1681525090565b828054600181600116156101000203166002900490600052602060002090601f016020900481019282601f106125e657805160ff1916838001178555612614565b82800160010185558215612614579182015b828111156126135782518255916020019190600101906125f8565b5b5090506126219190612651565b5090565b81548183558181111561264c5781836000526020600020918201910161264b9190612651565b5b505050565b61267391905b8082111561266f576000816000905550600101612657565b5090565b90565b6000813590506126858161383f565b92915050565b600082601f83011261269c57600080fd5b60026126af6126aa826135cf565b6135a2565b915081838560208402820111156126c557600080fd5b60005b838110156126f557816126db888261297d565b8452602084019350602083019250506001810190506126c8565b5050505092915050565b600082601f83011261271057600080fd5b600261272361271e826135f1565b6135a2565b9150818385602084028201111561273957600080fd5b60005b83811015612769578161274f888261297d565b84526020840193506020830192505060018101905061273c565b5050505092915050565b60008135905061278281613856565b92915050565b60008151905061279781613856565b92915050565b6000813590506127ac8161386d565b92915050565b6000813590506127c181613884565b92915050565b6000815190506127d681613884565b92915050565b600082601f8301126127ed57600080fd5b81356128006127fb82613613565b6135a2565b9150808252602083016020830185838301111561281c57600080fd5b6128278382846137b1565b50505092915050565b600082601f83011261284157600080fd5b813561285461284f8261363f565b6135a2565b9150808252602083016020830185838301111561287057600080fd5b61287b8382846137b1565b50505092915050565b60006040828403121561289657600080fd5b6128a060406135a2565b905060006128b08482850161297d565b60008301525060206128c48482850161297d565b60208301525092915050565b6000608082840312156128e257600080fd5b6128ec60406135a2565b905060006128fc8482850161268b565b60008301525060406129108482850161268b565b60208301525092915050565b6000610100828403121561292f57600080fd5b61293960606135a2565b9050600061294984828501612884565b600083015250604061295d848285016128d0565b60208301525060c061297184828501612884565b60408301525092915050565b60008135905061298c8161389b565b92915050565b6000602082840312156129a457600080fd5b60006129b284828501612676565b91505092915050565b600080604083850312156129ce57600080fd5b60006129dc85828601612676565b92505060206129ed85828601612676565b9150509250929050565b600080600060608486031215612a0c57600080fd5b6000612a1a86828701612676565b9350506020612a2b86828701612676565b9250506040612a3c8682870161297d565b9150509250925092565b60008060008060808587031215612a5c57600080fd5b6000612a6a87828801612676565b9450506020612a7b87828801612676565b9350506040612a8c8782880161297d565b925050606085013567ffffffffffffffff811115612aa957600080fd5b612ab5878288016127dc565b91505092959194509250565b60008060408385031215612ad457600080fd5b6000612ae285828601612676565b9250506020612af385828601612773565b9150509250929050565b60008060408385031215612b1057600080fd5b6000612b1e85828601612676565b9250506020612b2f8582860161297d565b9150509250929050565b6000806000806101808587031215612b5057600080fd5b6000612b5e87828801612676565b9450506020612b6f8782880161297d565b9350506040612b808782880161291c565b925050610140612b92878288016126ff565b91505092959194509250565b600060208284031215612bb057600080fd5b6000612bbe84828501612773565b91505092915050565b600060208284031215612bd957600080fd5b6000612be784828501612788565b91505092915050565b60008060408385031215612c0357600080fd5b6000612c118582860161279d565b925050602083013567ffffffffffffffff811115612c2e57600080fd5b612c3a85828601612830565b9150509250929050565b600080600060608486031215612c5957600080fd5b6000612c678682870161279d565b935050602084013567ffffffffffffffff811115612c8457600080fd5b612c9086828701612830565b925050604084013567ffffffffffffffff811115612cad57600080fd5b612cb9868287016127dc565b9150509250925092565b600060208284031215612cd557600080fd5b6000612ce3848285016127b2565b91505092915050565b600060208284031215612cfe57600080fd5b6000612d0c848285016127c7565b91505092915050565b600060208284031215612d2757600080fd5b6000612d358482850161297d565b91505092915050565b6000612d4a83836132b3565b60208301905092915050565b612d5f8161377b565b82525050565b612d6e816136fd565b82525050565b612d85612d80826136fd565b6137f3565b82525050565b612d948161368a565b612d9e81846136d0565b9250612da982613675565b8060005b83811015612dda578151612dc18782612d3e565b9650612dcc836136b8565b925050600181019050612dad565b505050505050565b612deb8161367f565b612df581846136c5565b9250612e008261366b565b8060005b83811015612e31578151612e188782612d3e565b9650612e23836136ab565b925050600181019050612e04565b505050505050565b612e428161370f565b82525050565b6000612e5382613695565b612e5d81856136db565b9350612e6d8185602086016137c0565b612e7681613821565b840191505092915050565b6000612e8c826136a0565b612e9681856136ec565b9350612ea68185602086016137c0565b612eaf81613821565b840191505092915050565b6000612ec76015836136ec565b91507f746f206164647265737320697320696e76616c696400000000000000000000006000830152602082019050919050565b6000612f07602c836136ec565b91507f476976656e206164647265737320746f20626520746865206f776e6572206f6660008301527f2074686520746f6b656e496400000000000000000000000000000000000000006020830152604082019050919050565b6000612f6d6016836136ec565b91507f546f6b656e496420616c726561647920657869737473000000000000000000006000830152602082019050919050565b6000612fad6034836136ec565b91507f66726f6d2061646472657373206e65656420746f20626520746865206f776e6560008301527f72206f662074686520676976656e20746f6b656e0000000000000000000000006020830152604082019050919050565b60006130136015836136ec565b91507f506175736564206973206e6f74206368616e67656400000000000000000000006000830152602082019050919050565b60006130536010836136ec565b91507f50726f6f6620697320696e76616c6964000000000000000000000000000000006000830152602082019050919050565b60006130936011836136ec565b91507f4e6577206f776e657220696e76616c69640000000000000000000000000000006000830152602082019050919050565b60006130d3605b836136ec565b91507f436f6e646974696f6e206661696c3a206d73672073656e64657220746f20626560008301527f20746865206f776e6572206f662074686520636f6e7472616374206f7220697360208301527f417070726f766564466f72416c6c282920746f206265207472756500000000006040830152606082019050919050565b600061315f6017836136ec565b91507f536f6c7574696f6e20616c7265616479206578697374730000000000000000006000830152602082019050919050565b600061319f6020836136ec565b91507f52657175697265206f6e6c7920636f6e7472616374206f776e65722063616c6c6000830152602082019050919050565b60006131df6012836136ec565b91507f4164647265737320697320696e76616c696400000000000000000000000000006000830152602082019050919050565b60408201600082015161322860008501826132b3565b50602082015161323b60208501826132b3565b50505050565b6080820160008201516132576000850182612de2565b50602082015161326a6040850182612de2565b50505050565b610100820160008201516132876000850182613212565b50602082015161329a6040850182613241565b5060408201516132ad60c0850182613212565b50505050565b6132bc81613771565b82525050565b6132cb81613771565b82525050565b6132e26132dd82613771565b613817565b82525050565b60006132f482856132d1565b6020820191506133048284612d74565b6014820191508190509392505050565b60006020820190506133296000830184612d65565b92915050565b60006020820190506133446000830184612d56565b92915050565b600060808201905061335f6000830187612d56565b61336c6020830186612d65565b61337960408301856132c2565b818103606083015261338b8184612e48565b905095945050505050565b60006020820190506133ab6000830184612e39565b92915050565b600060208201905081810360008301526133cb8184612e81565b905092915050565b600060208201905081810360008301526133ec81612eba565b9050919050565b6000602082019050818103600083015261340c81612efa565b9050919050565b6000602082019050818103600083015261342c81612f60565b9050919050565b6000602082019050818103600083015261344c81612fa0565b9050919050565b6000602082019050818103600083015261346c81613006565b9050919050565b6000602082019050818103600083015261348c81613046565b9050919050565b600060208201905081810360008301526134ac81613086565b9050919050565b600060208201905081810360008301526134cc816130c6565b9050919050565b600060208201905081810360008301526134ec81613152565b9050919050565b6000602082019050818103600083015261350c81613192565b9050919050565b6000602082019050818103600083015261352c816131d2565b9050919050565b6000610140820190506135496000830185613270565b613557610100830184612d8b565b9392505050565b600060208201905061357360008301846132c2565b92915050565b600060408201905061358e60008301856132c2565b61359b6020830184612d65565b9392505050565b6000604051905081810181811067ffffffffffffffff821117156135c557600080fd5b8060405250919050565b600067ffffffffffffffff8211156135e657600080fd5b602082029050919050565b600067ffffffffffffffff82111561360857600080fd5b602082029050919050565b600067ffffffffffffffff82111561362a57600080fd5b601f19601f8301169050602081019050919050565b600067ffffffffffffffff82111561365657600080fd5b601f19601f8301169050602081019050919050565b6000819050919050565b6000819050919050565b600060029050919050565b600060029050919050565b600081519050919050565b600081519050919050565b6000602082019050919050565b6000602082019050919050565b600081905092915050565b600081905092915050565b600082825260208201905092915050565b600082825260208201905092915050565b600061370882613751565b9050919050565b60008115159050919050565b6000819050919050565b60007fffffffff0000000000000000000000000000000000000000000000000000000082169050919050565b600073ffffffffffffffffffffffffffffffffffffffff82169050919050565b6000819050919050565b60006137868261378d565b9050919050565b60006137988261379f565b9050919050565b60006137aa82613751565b9050919050565b82818337600083830152505050565b60005b838110156137de5780820151818401526020810190506137c3565b838111156137ed576000848401525b50505050565b60006137fe82613805565b9050919050565b600061381082613832565b9050919050565b6000819050919050565b6000601f19601f8301169050919050565b60008160601b9050919050565b613848816136fd565b811461385357600080fd5b50565b61385f8161370f565b811461386a57600080fd5b50565b6138768161371b565b811461388157600080fd5b50565b61388d81613725565b811461389857600080fd5b50565b6138a481613771565b81146138af57600080fd5b5056fea365627a7a72315820043ff1e89ca90e936b2ae78fc6ae41217e54743e2920187099c5baf0f96036156c6578706572696d656e74616cf564736f6c63430005100040608060405234801561001057600080fd5b506110c1806100206000396000f3fe608060405234801561001057600080fd5b506004361061002b5760003560e01c806343cd76fc14610030575b600080fd5b61004a60048036036100459190810190610f78565b610060565b6040516100579190610fc5565b60405180910390f35b6000606060026040519080825280602002602001820160405280156100945781602001602082028038833980820191505090505b50905060008090505b60028110156100dc578381600281106100b257fe5b60200201518282815181106100c357fe5b602002602001018181525050808060010191505061009d565b5060006100e98286610105565b14156100f95760019150506100ff565b60009150505b92915050565b6000807f30644e72e131a029b85045b68181585d2833e84879b9709143e1f593f00000019050610133610c59565b61013b610277565b905080608001515160018651011461015257600080fd5b61015a610ca0565b6040518060400160405280600081526020016000815250905060008090505b86518110156101f0578387828151811061018f57fe5b6020026020010151106101a157600080fd5b6101e1826101dc856080015160018501815181106101bb57fe5b60200260200101518a85815181106101cf57fe5b60200260200101516106c5565b610757565b91508080600101915050610179565b5061021381836080015160008151811061020657fe5b6020026020010151610757565b90506102598560000151866020015161022b84610808565b856040015161023d8a60400151610808565b876060015161024f8960000151610808565b89602001516108a2565b6102695760019350505050610271565b600093505050505b92915050565b61027f610c59565b60405180604001604052807f19da9cc6bdde801484456f5a58963a9b2da4895b9a8364382feb30e43d162ed081526020017f094497eb964cdda229321d15482fb903f160ac8fedf51707c5054790ff28bc2f8152508160000181905250604051806040016040528060405180604001604052807f1039b99311d7e8fbbb69b73f79a98341e6e295534e543c563270e2e3a8445ad181526020017f1e4ebdf404a0bd53bb5c84b7ba319c126ed980f1fbbd2ff4f3b261ffe02bd1df815250815260200160405180604001604052807f21d3009154507b21cdb61d358c815d80488362e28204a240d4ee25813e45693481526020017f2fe8845923911d4c37481c022a790f9808730f79e3ab0fa017c0de4173d77b3e8152508152508160200181905250604051806040016040528060405180604001604052807f1155bc3c6d1dab096262b3f3e03e2d1caa9e788cdc367f303786834a8b5842fd81526020017f241e1c63afbbc804e968de890ffa167c5529b886368eef0f501f99f8e105d9ef815250815260200160405180604001604052807f01b9133b908552bc284469a3071212da2d9f78a5fe8fa9ed04b392706e1f17ab81526020017f12dc52b045b7fa99661dccea4ccb3675e80214d1a46e61d9bdab165f4a25d6558152508152508160400181905250604051806040016040528060405180604001604052807f256cd34c4224f6b5d43180e6f5d053e8f7d058892072648e59a352dbdb78409481526020017f244629df805270d2a9d12ec09745a349fda5a6e66418cd02fd1fc88e85e553f7815250815260200160405180604001604052807f0c7a7b79ca94480f2a27f97dea04e25fc4fb5a6f732a98bc701c781f7f4f85c781526020017f1ebf10f7939326fc518e69d633ba09fa8742c2fdd1824ab9b9cbdd3c127a884a8152508152508160600181905250600360405190808252806020026020018201604052801561056657816020015b610553610cba565b81526020019060019003908161054b5790505b50816080018190525060405180604001604052807f17664160b7fcfa9233a875b7c203db05afd427c77781b889d5322b951a2172e181526020017f216ba87e31b09aeb3ae703927d13fa1b44f451eae177a6e81347e1776be3fad781525081608001516000815181106105d557fe5b602002602001018190525060405180604001604052807f07271b0c5f81639753933a79fdb190f055e5c835a671dfc65c020f060638b56c81526020017f2a4e84621f852cc0737eb566c95a3eda6a82f958d31cdca6b29d02168eb27481815250816080015160018151811061064657fe5b602002602001018190525060405180604001604052807f1d45242b779c56473861b901ebd70e5a0d4656db5cee9b68d853f1d6de3ecada81526020017f2638bdedf05b6743c0b35065ced1711728cb52388618b29d81fd928bf48c37c581525081608001516002815181106106b757fe5b602002602001018190525090565b6106cd610ca0565b6106d5610cd4565b8360000151816000600381106106e757fe5b60200201818152505083602001518160016003811061070257fe5b602002018181525050828160026003811061071957fe5b602002018181525050600060608360808460076107d05a03fa9050806000811461074257610744565bfe5b508061074f57600080fd5b505092915050565b61075f610ca0565b610767610cf6565b83600001518160006004811061077957fe5b60200201818152505083602001518160016004811061079457fe5b6020020181815250508260000151816002600481106107af57fe5b6020020181815250508260200151816003600481106107ca57fe5b602002018181525050600060608360c08460066107d05a03fa905080600081146107f3576107f5565bfe5b508061080057600080fd5b505092915050565b610810610ca0565b60007f30644e72e131a029b85045b68181585d97816a916871ca8d3c208c16d87cfd4790506000836000015114801561084d575060008360200151145b1561087157604051806040016040528060008152602001600081525091505061089d565b6040518060400160405280846000015181526020018285602001518161089357fe5b0683038152509150505b919050565b6000606060046040519080825280602002602001820160405280156108e157816020015b6108ce610cba565b8152602001906001900390816108c65790505b5090506060600460405190808252806020026020018201604052801561092157816020015b61090e610d18565b8152602001906001900390816109065790505b5090508a8260008151811061093257fe5b6020026020010181905250888260018151811061094b57fe5b6020026020010181905250868260028151811061096457fe5b6020026020010181905250848260038151811061097d57fe5b6020026020010181905250898160008151811061099657fe5b602002602001018190525087816001815181106109af57fe5b602002602001018190525085816002815181106109c857fe5b602002602001018190525083816003815181106109e157fe5b60200260200101819052506109f68282610a06565b9250505098975050505050505050565b60008151835114610a1657600080fd5b6000835190506000600682029050606081604051908082528060200260200182016040528015610a555781602001602082028038833980820191505090505b50905060008090505b83811015610bfb57868181518110610a7257fe5b602002602001015160000151826000600684020181518110610a9057fe5b602002602001018181525050868181518110610aa857fe5b602002602001015160200151826001600684020181518110610ac657fe5b602002602001018181525050858181518110610ade57fe5b602002602001015160000151600160028110610af657fe5b6020020151826002600684020181518110610b0d57fe5b602002602001018181525050858181518110610b2557fe5b602002602001015160000151600060028110610b3d57fe5b6020020151826003600684020181518110610b5457fe5b602002602001018181525050858181518110610b6c57fe5b602002602001015160200151600160028110610b8457fe5b6020020151826004600684020181518110610b9b57fe5b602002602001018181525050858181518110610bb357fe5b602002602001015160200151600060028110610bcb57fe5b6020020151826005600684020181518110610be257fe5b6020026020010181815250508080600101915050610a5e565b50610c04610d3e565b6000602082602086026020860160086107d05a03fa90508060008114610c2957610c2b565bfe5b5080610c3657600080fd5b600082600060018110610c4557fe5b602002015114159550505050505092915050565b6040518060a00160405280610c6c610cba565b8152602001610c79610d18565b8152602001610c86610d18565b8152602001610c93610d18565b8152602001606081525090565b604051806040016040528060008152602001600081525090565b604051806040016040528060008152602001600081525090565b6040518060600160405280600390602082028038833980820191505090505090565b6040518060800160405280600490602082028038833980820191505090505090565b6040518060400160405280610d2b610d60565b8152602001610d38610d60565b81525090565b6040518060200160405280600190602082028038833980820191505090505090565b6040518060400160405280600290602082028038833980820191505090505090565b600082601f830112610d9357600080fd5b6002610da6610da18261100d565b610fe0565b91508183856020840282011115610dbc57600080fd5b60005b83811015610dec5781610dd28882610f63565b845260208401935060208301925050600181019050610dbf565b5050505092915050565b600082601f830112610e0757600080fd5b6002610e1a610e158261102f565b610fe0565b91508183856020840282011115610e3057600080fd5b60005b83811015610e605781610e468882610f63565b845260208401935060208301925050600181019050610e33565b5050505092915050565b600060408284031215610e7c57600080fd5b610e866040610fe0565b90506000610e9684828501610f63565b6000830152506020610eaa84828501610f63565b60208301525092915050565b600060808284031215610ec857600080fd5b610ed26040610fe0565b90506000610ee284828501610d82565b6000830152506040610ef684828501610d82565b60208301525092915050565b60006101008284031215610f1557600080fd5b610f1f6060610fe0565b90506000610f2f84828501610e6a565b6000830152506040610f4384828501610eb6565b60208301525060c0610f5784828501610e6a565b60408301525092915050565b600081359050610f7281611067565b92915050565b6000806101408385031215610f8c57600080fd5b6000610f9a85828601610f02565b925050610100610fac85828601610df6565b9150509250929050565b610fbf81611051565b82525050565b6000602082019050610fda6000830184610fb6565b92915050565b6000604051905081810181811067ffffffffffffffff8211171561100357600080fd5b8060405250919050565b600067ffffffffffffffff82111561102457600080fd5b602082029050919050565b600067ffffffffffffffff82111561104657600080fd5b602082029050919050565b60008115159050919050565b6000819050919050565b6110708161105d565b811461107b57600080fd5b5056fea365627a7a723158206a5b4adcf5955e73b478418691de9d8d76f3854bd16d1e56c8887c2269d50e286c6578706572696d656e74616cf564736f6c6343000510004068747470733a2f2f73332d75732d776573742d322e616d617a6f6e6177732e636f6d2f756461636974792d626c6f636b636861696e2f63617073746f6e652f",
  "source": "pragma solidity ^0.5.0;\npragma experimental ABIEncoderV2;\n\n// TODO define a contract call to the zokrates generated solidity contract <Verifier> or <renamedVerifier>\nimport \"./verifier.sol\";\nimport \"./ERC721Mintable.sol\";\n\n// TODO define another contract named SolnSquareVerifier that inherits from your ERC721Mintable class\ncontract SolnSquareVerifier is CustomERC721Token {\n    Verifier verifier = new Verifier();\n\n// TODO define a solutions struct that can hold an index & an address\n    struct Solution {\n        uint256 index;\n        address solutionAddress;\n    }\n\n// TODO define an array of the above struct\n    Solution[] private solutions;\n\n// TODO define a mapping to store unique solutions submitted\n    mapping(bytes32 => Solution) uniqueSolutions;\n\n// TODO Create an event to emit when a solution is added\n    event SolutionAdded(uint256 index, address solutionAddress);\n\n    constructor (string memory name, string memory symbol) public CustomERC721Token(name, symbol) {}\n    \n// TODO Create a function to add the solutions to the array and emit the event\n    function _addSolution(uint256 index, address solutionAddress) internal {\n        Solution memory solution = Solution({index: index,\n                                            solutionAddress: solutionAddress});\n\n        solutions.push(solution);\n\n        bytes32 key = keccak256(abi.encodePacked(index, solutionAddress));\n        uniqueSolutions[key] = solution;\n\n        emit SolutionAdded(index, solutionAddress);\n    }\n\n\n// TODO Create a function to mint new NFT only after the solution has been verified\n//  - make sure the solution is unique (has not been used before)\n//  - make sure you handle metadata as well as tokenSuplly\n    function mintNFT(address to, \n                    uint256 tokenId,\n                    Verifier.Proof memory proof, \n                    uint[2] memory input) \n                    public \n                    onlyOwner {\n        require(verifier.verifyTx(proof, input), \"Proof is invalid\");\n\n        bytes32 key = keccak256(abi.encodePacked(tokenId, to));\n        require(uniqueSolutions[key].solutionAddress == address(0), \"Solution already exists\");\n\n        super.mint(to, tokenId);\n        _addSolution(tokenId, to);\n    }\n}",
  "sourcePath": "/Users/duydo/Projects/Crypto/Udacity/udacity-blockchain-developer-nanodegree/5. Real Estate Marketplace/eth-contracts/contracts/SolnSquareVerifier.sol",
  "compiler": {
    "name": "solc",
    "version": "0.5.16+commit.9c3226ce.Emscripten.clang"
  },
  "schemaVersion": "3.4.6",
  "updatedAt": "2022-04-09T15:07:34.495Z",
  "networkType": "ethereum",
  "devdoc": {
    "methods": {
      "isApprovedForAll(address,address)": {
        "details": "Tells whether an operator is approved by a given owner",
        "params": {
          "operator": "operator address which you want to query the approval of",
          "owner": "owner address which you want to query the approval of"
        },
        "return": "bool whether the given operator is approved by the given owner"
      },
      "setApprovalForAll(address,bool)": {
        "details": "Sets or unsets the approval of a given operator An operator is allowed to transfer all tokens of the sender on their behalf",
        "params": {
          "approved": "representing the status of the approval to be set",
          "to": "operator address to set the approval"
        }
      },
      "supportsInterface(bytes4)": {
        "details": "implement supportsInterface(bytes4) using a lookup table"
      },
      "tokenByIndex(uint256)": {
        "details": "Gets the token ID at a given index of all the tokens in this contract Reverts if the index is greater or equal to the total number of tokens",
        "params": {
          "index": "uint256 representing the index to be accessed of the tokens list"
        },
        "return": "uint256 token ID at the given index of the tokens list"
      },
      "tokenOfOwnerByIndex(address,uint256)": {
        "details": "Gets the token ID at a given index of the tokens list of the requested owner",
        "params": {
          "index": "uint256 representing the index to be accessed of the requested tokens list",
          "owner": "address owning the tokens list to be accessed"
        },
        "return": "uint256 token ID at the given index of the tokens list owned by the requested address"
      },
      "totalSupply()": {
        "details": "Gets the total amount of tokens stored by the contract",
        "return": "uint256 representing the total amount of tokens"
      }
    }
  },
  "userdoc": {
    "methods": {}
  }
}