{
  "contractName": "FlightSuretyData",
  "abi": [
    {
      "inputs": [
        {
          "name": "airlineAdress",
          "type": "address"
        },
        {
          "name": "airlineName",
          "type": "string"
        }
      ],
      "payable": false,
      "stateMutability": "nonpayable",
      "type": "constructor"
    },
    {
      "payable": true,
      "stateMutability": "payable",
      "type": "fallback"
    },
    {
      "anonymous": false,
      "inputs": [
        {
          "indexed": false,
          "name": "airline",
          "type": "address"
        },
        {
          "indexed": false,
          "name": "name",
          "type": "string"
        },
        {
          "indexed": false,
          "name": "isRegistered",
          "type": "bool"
        }
      ],
      "name": "AirlineRegistered",
      "type": "event"
    },
    {
      "anonymous": false,
      "inputs": [
        {
          "indexed": false,
          "name": "addr",
          "type": "address"
        },
        {
          "indexed": false,
          "name": "amount",
          "type": "uint256"
        }
      ],
      "name": "AirlineFunded",
      "type": "event"
    },
    {
      "anonymous": false,
      "inputs": [
        {
          "indexed": false,
          "name": "airline",
          "type": "address"
        },
        {
          "indexed": false,
          "name": "flight",
          "type": "string"
        },
        {
          "indexed": false,
          "name": "timestamp",
          "type": "uint256"
        },
        {
          "indexed": false,
          "name": "statusCode",
          "type": "uint8"
        }
      ],
      "name": "FlightRegistered",
      "type": "event"
    },
    {
      "anonymous": false,
      "inputs": [
        {
          "indexed": false,
          "name": "airline",
          "type": "address"
        },
        {
          "indexed": false,
          "name": "flight",
          "type": "string"
        },
        {
          "indexed": false,
          "name": "timestamp",
          "type": "uint256"
        },
        {
          "indexed": false,
          "name": "passenger",
          "type": "address"
        },
        {
          "indexed": false,
          "name": "amount",
          "type": "uint256"
        }
      ],
      "name": "BoughtInsurance",
      "type": "event"
    },
    {
      "anonymous": false,
      "inputs": [
        {
          "indexed": false,
          "name": "airline",
          "type": "address"
        },
        {
          "indexed": false,
          "name": "flight",
          "type": "string"
        },
        {
          "indexed": false,
          "name": "timestamp",
          "type": "uint256"
        },
        {
          "indexed": false,
          "name": "statusCode",
          "type": "uint8"
        }
      ],
      "name": "FlightStatusUpdated",
      "type": "event"
    },
    {
      "anonymous": false,
      "inputs": [
        {
          "indexed": false,
          "name": "passenger",
          "type": "address"
        },
        {
          "indexed": false,
          "name": "amount",
          "type": "uint256"
        }
      ],
      "name": "InsureeCredited",
      "type": "event"
    },
    {
      "anonymous": false,
      "inputs": [
        {
          "indexed": false,
          "name": "passenger",
          "type": "address"
        },
        {
          "indexed": false,
          "name": "amount",
          "type": "uint256"
        }
      ],
      "name": "PassengerWithdrawn",
      "type": "event"
    },
    {
      "constant": true,
      "inputs": [],
      "name": "isOperational",
      "outputs": [
        {
          "name": "",
          "type": "bool"
        }
      ],
      "payable": false,
      "stateMutability": "view",
      "type": "function"
    },
    {
      "constant": false,
      "inputs": [
        {
          "name": "mode",
          "type": "bool"
        }
      ],
      "name": "setOperatingStatus",
      "outputs": [],
      "payable": false,
      "stateMutability": "nonpayable",
      "type": "function"
    },
    {
      "constant": false,
      "inputs": [
        {
          "name": "airlineAdress",
          "type": "address"
        },
        {
          "name": "airlineName",
          "type": "string"
        },
        {
          "name": "isRegistered",
          "type": "bool"
        }
      ],
      "name": "registerAirline",
      "outputs": [],
      "payable": false,
      "stateMutability": "nonpayable",
      "type": "function"
    },
    {
      "constant": false,
      "inputs": [
        {
          "name": "account",
          "type": "address"
        },
        {
          "name": "value",
          "type": "uint256"
        }
      ],
      "name": "fundAirline",
      "outputs": [],
      "payable": false,
      "stateMutability": "nonpayable",
      "type": "function"
    },
    {
      "constant": true,
      "inputs": [
        {
          "name": "account",
          "type": "address"
        }
      ],
      "name": "getFunded",
      "outputs": [
        {
          "name": "",
          "type": "uint256"
        }
      ],
      "payable": false,
      "stateMutability": "view",
      "type": "function"
    },
    {
      "constant": true,
      "inputs": [
        {
          "name": "account",
          "type": "address"
        }
      ],
      "name": "isRegistered",
      "outputs": [
        {
          "name": "",
          "type": "bool"
        }
      ],
      "payable": false,
      "stateMutability": "view",
      "type": "function"
    },
    {
      "constant": true,
      "inputs": [],
      "name": "getAirlineCount",
      "outputs": [
        {
          "name": "",
          "type": "uint256"
        }
      ],
      "payable": false,
      "stateMutability": "view",
      "type": "function"
    },
    {
      "constant": false,
      "inputs": [
        {
          "name": "passenger",
          "type": "address"
        },
        {
          "name": "airline",
          "type": "address"
        },
        {
          "name": "flight",
          "type": "string"
        },
        {
          "name": "timestamp",
          "type": "uint256"
        },
        {
          "name": "value",
          "type": "uint256"
        }
      ],
      "name": "buyInsurance",
      "outputs": [],
      "payable": false,
      "stateMutability": "nonpayable",
      "type": "function"
    },
    {
      "constant": true,
      "inputs": [
        {
          "name": "passenger",
          "type": "address"
        },
        {
          "name": "airline",
          "type": "address"
        },
        {
          "name": "flight",
          "type": "string"
        },
        {
          "name": "timestamp",
          "type": "uint256"
        }
      ],
      "name": "getInsurance",
      "outputs": [
        {
          "name": "",
          "type": "uint256"
        }
      ],
      "payable": false,
      "stateMutability": "view",
      "type": "function"
    },
    {
      "constant": false,
      "inputs": [
        {
          "name": "airline",
          "type": "address"
        },
        {
          "name": "flight",
          "type": "string"
        },
        {
          "name": "timestamp",
          "type": "uint256"
        },
        {
          "name": "multiplier_percentage",
          "type": "uint256"
        }
      ],
      "name": "creditInsurees",
      "outputs": [],
      "payable": false,
      "stateMutability": "nonpayable",
      "type": "function"
    },
    {
      "constant": true,
      "inputs": [
        {
          "name": "passenger",
          "type": "address"
        }
      ],
      "name": "getPassengerCredit",
      "outputs": [
        {
          "name": "",
          "type": "uint256"
        }
      ],
      "payable": false,
      "stateMutability": "view",
      "type": "function"
    },
    {
      "constant": false,
      "inputs": [
        {
          "name": "passenger",
          "type": "address"
        }
      ],
      "name": "payInsuree",
      "outputs": [],
      "payable": true,
      "stateMutability": "payable",
      "type": "function"
    },
    {
      "constant": false,
      "inputs": [],
      "name": "fund",
      "outputs": [],
      "payable": true,
      "stateMutability": "payable",
      "type": "function"
    },
    {
      "constant": false,
      "inputs": [
        {
          "name": "airline",
          "type": "address"
        },
        {
          "name": "flight",
          "type": "string"
        },
        {
          "name": "timestamp",
          "type": "uint256"
        },
        {
          "name": "status_code",
          "type": "uint8"
        }
      ],
      "name": "registerFlight",
      "outputs": [],
      "payable": false,
      "stateMutability": "nonpayable",
      "type": "function"
    },
    {
      "constant": false,
      "inputs": [
        {
          "name": "airline",
          "type": "address"
        },
        {
          "name": "flight",
          "type": "string"
        },
        {
          "name": "timestamp",
          "type": "uint256"
        },
        {
          "name": "status_code",
          "type": "uint8"
        }
      ],
      "name": "processFlightStatus",
      "outputs": [],
      "payable": false,
      "stateMutability": "nonpayable",
      "type": "function"
    },
    {
      "constant": true,
      "inputs": [
        {
          "name": "airline",
          "type": "address"
        },
        {
          "name": "flight",
          "type": "string"
        },
        {
          "name": "timestamp",
          "type": "uint256"
        }
      ],
      "name": "getFlightStatus",
      "outputs": [
        {
          "name": "",
          "type": "uint8"
        }
      ],
      "payable": false,
      "stateMutability": "view",
      "type": "function"
    },
    {
      "constant": true,
      "inputs": [
        {
          "name": "newContract",
          "type": "address"
        }
      ],
      "name": "isAuthorizedCaller",
      "outputs": [
        {
          "name": "",
          "type": "bool"
        }
      ],
      "payable": false,
      "stateMutability": "view",
      "type": "function"
    },
    {
      "constant": false,
      "inputs": [
        {
          "name": "newAppContract",
          "type": "address"
        }
      ],
      "name": "authorizeCaller",
      "outputs": [],
      "payable": false,
      "stateMutability": "nonpayable",
      "type": "function"
    },
    {
      "constant": false,
      "inputs": [
        {
          "name": "authorizedContract",
          "type": "address"
        }
      ],
      "name": "deauthorizeCaller",
      "outputs": [],
      "payable": false,
      "stateMutability": "nonpayable",
      "type": "function"
    }
  ],
  "bytecode": "0x60806040526001600060146101000a81548160ff02191690831515021790555060006002553480156200003157600080fd5b50604051620038fa380380620038fa8339810180604052810190808051906020019092919080518201929190505050336000806101000a81548173ffffffffffffffffffffffffffffffffffffffff021916908373ffffffffffffffffffffffffffffffffffffffff1602179055506060604051908101604052808281526020016001151581526020016000815250600160008473ffffffffffffffffffffffffffffffffffffffff1673ffffffffffffffffffffffffffffffffffffffff16815260200190815260200160002060008201518160000190805190602001906200011d92919062000245565b5060208201518160010160006101000a81548160ff021916908315150217905550604082015181600201559050506002600081548092919060010191905055507fdbb31e2c804ee5d5ee281eee227f7905aff16b2e0058520532f932bf420478f082826001604051808473ffffffffffffffffffffffffffffffffffffffff1673ffffffffffffffffffffffffffffffffffffffff1681526020018060200183151515158152602001828103825284818151815260200191508051906020019080838360005b8381101562000200578082015181840152602081019050620001e3565b50505050905090810190601f1680156200022e5780820380516001836020036101000a031916815260200191505b5094505050505060405180910390a15050620002f4565b828054600181600116156101000203166002900490600052602060002090601f016020900481019282601f106200028857805160ff1916838001178555620002b9565b82800160010185558215620002b9579182015b82811115620002b85782518255916020019190600101906200029b565b5b509050620002c89190620002cc565b5090565b620002f191905b80821115620002ed576000816000905550600101620002d3565b5090565b90565b6135f680620003046000396000f300608060405260043610610107576000357c0100000000000000000000000000000000000000000000000000000000900463ffffffff16806305b64e9814610111578063110466ed1461016857806316e459c5146101975780632c388d5d146101ee57806350cf16671461023157806359d14b41146102ca5780636873c21d146103255780637f9e1808146103685780638a8c82f214610393578063901f8913146103c95780639de5f95714610458578063b60d4288146104d7578063bc2f5e17146104e1578063c0773a2414610548578063c3c5a547146105b7578063cd905dff14610612578063d9d4122614610641578063e7bdde3b146106b3578063f1a81e7214610725575b61010f610772565b005b34801561011d57600080fd5b50610152600480360381019080803573ffffffffffffffffffffffffffffffffffffffff16906020019092919050505061081e565b6040518082815260200191505060405180910390f35b34801561017457600080fd5b506101956004803603810190808035151590602001909291905050506109fa565b005b3480156101a357600080fd5b506101d8600480360381019080803573ffffffffffffffffffffffffffffffffffffffff169060200190929190505050610adb565b6040518082815260200191505060405180910390f35b3480156101fa57600080fd5b5061022f600480360381019080803573ffffffffffffffffffffffffffffffffffffffff169060200190929190505050610c0e565b005b34801561023d57600080fd5b506102b4600480360381019080803573ffffffffffffffffffffffffffffffffffffffff169060200190929190803573ffffffffffffffffffffffffffffffffffffffff16906020019092919080359060200190820180359060200191909192939192939080359060200190929190505050610dd7565b6040518082815260200191505060405180910390f35b3480156102d657600080fd5b5061030b600480360381019080803573ffffffffffffffffffffffffffffffffffffffff169060200190929190505050610f2b565b604051808215151515815260200191505060405180910390f35b34801561033157600080fd5b50610366600480360381019080803573ffffffffffffffffffffffffffffffffffffffff169060200190929190505050610f81565b005b34801561037457600080fd5b5061037d611141565b6040518082815260200191505060405180910390f35b6103c7600480360381019080803573ffffffffffffffffffffffffffffffffffffffff16906020019092919050505061114b565b005b3480156103d557600080fd5b50610456600480360381019080803573ffffffffffffffffffffffffffffffffffffffff169060200190929190803573ffffffffffffffffffffffffffffffffffffffff1690602001909291908035906020019082018035906020019190919293919293908035906020019092919080359060200190929190505050611569565b005b34801561046457600080fd5b506104bb600480360381019080803573ffffffffffffffffffffffffffffffffffffffff169060200190929190803590602001908201803590602001919091929391929390803590602001909291905050506119fb565b604051808260ff1660ff16815260200191505060405180910390f35b6104df610772565b005b3480156104ed57600080fd5b50610546600480360381019080803573ffffffffffffffffffffffffffffffffffffffff169060200190929190803590602001908201803590602001919091929391929390803515159060200190929190505050611bbe565b005b34801561055457600080fd5b506105b5600480360381019080803573ffffffffffffffffffffffffffffffffffffffff16906020019092919080359060200190820180359060200191909192939192939080359060200190929190803590602001909291905050506120c7565b005b3480156105c357600080fd5b506105f8600480360381019080803573ffffffffffffffffffffffffffffffffffffffff169060200190929190505050612571565b604051808215151515815260200191505060405180910390f35b34801561061e57600080fd5b506106276126b1565b604051808215151515815260200191505060405180910390f35b34801561064d57600080fd5b506106b1600480360381019080803573ffffffffffffffffffffffffffffffffffffffff16906020019092919080359060200190820180359060200191909192939192939080359060200190929190803560ff1690602001909291905050506126c7565b005b3480156106bf57600080fd5b50610723600480360381019080803573ffffffffffffffffffffffffffffffffffffffff16906020019092919080359060200190820180359060200191909192939192939080359060200190929190803560ff169060200190929190505050612b72565b005b34801561073157600080fd5b50610770600480360381019080803573ffffffffffffffffffffffffffffffffffffffff16906020019092919080359060200190929190505050612f66565b005b600060149054906101000a900460ff16151561081c576040517f08c379a00000000000000000000000000000000000000000000000000000000081526004018080602001828103825260258152602001807f436f6e74726163742069732063757272656e746c79206e6f74206f706572617481526020017f696f6e616c00000000000000000000000000000000000000000000000000000081525060400191505060405180910390fd5b565b60008060149054906101000a900460ff1615156108c9576040517f08c379a00000000000000000000000000000000000000000000000000000000081526004018080602001828103825260258152602001807f436f6e74726163742069732063757272656e746c79206e6f74206f706572617481526020017f696f6e616c00000000000000000000000000000000000000000000000000000081525060400191505060405180910390fd5b600360003373ffffffffffffffffffffffffffffffffffffffff1673ffffffffffffffffffffffffffffffffffffffff16815260200190815260200160002060009054906101000a900460ff1615156109b0576040517f08c379a00000000000000000000000000000000000000000000000000000000081526004018080602001828103825260218152602001807f43616c6c6572206973206e6f7420617574686f72697a656420636f6e7472616381526020017f740000000000000000000000000000000000000000000000000000000000000081525060400191505060405180910390fd5b600460008373ffffffffffffffffffffffffffffffffffffffff1673ffffffffffffffffffffffffffffffffffffffff168152602001908152602001600020600101549050919050565b6000809054906101000a900473ffffffffffffffffffffffffffffffffffffffff1673ffffffffffffffffffffffffffffffffffffffff163373ffffffffffffffffffffffffffffffffffffffff16141515610abe576040517f08c379a000000000000000000000000000000000000000000000000000000000815260040180806020018281038252601c8152602001807f43616c6c6572206973206e6f7420636f6e7472616374206f776e65720000000081525060200191505060405180910390fd5b80600060146101000a81548160ff02191690831515021790555050565b6000600360003373ffffffffffffffffffffffffffffffffffffffff1673ffffffffffffffffffffffffffffffffffffffff16815260200190815260200160002060009054906101000a900460ff161515610bc4576040517f08c379a00000000000000000000000000000000000000000000000000000000081526004018080602001828103825260218152602001807f43616c6c6572206973206e6f7420617574686f72697a656420636f6e7472616381526020017f740000000000000000000000000000000000000000000000000000000000000081525060400191505060405180910390fd5b600160008373ffffffffffffffffffffffffffffffffffffffff1673ffffffffffffffffffffffffffffffffffffffff168152602001908152602001600020600201549050919050565b6000809054906101000a900473ffffffffffffffffffffffffffffffffffffffff1673ffffffffffffffffffffffffffffffffffffffff163373ffffffffffffffffffffffffffffffffffffffff16141515610cd2576040517f08c379a000000000000000000000000000000000000000000000000000000000815260040180806020018281038252601c8152602001807f43616c6c6572206973206e6f7420636f6e7472616374206f776e65720000000081525060200191505060405180910390fd5b600060149054906101000a900460ff161515610d7c576040517f08c379a00000000000000000000000000000000000000000000000000000000081526004018080602001828103825260258152602001807f436f6e74726163742069732063757272656e746c79206e6f74206f706572617481526020017f696f6e616c00000000000000000000000000000000000000000000000000000081525060400191505060405180910390fd5b6001600360008373ffffffffffffffffffffffffffffffffffffffff1673ffffffffffffffffffffffffffffffffffffffff16815260200190815260200160002060006101000a81548160ff02191690831515021790555050565b600080600060149054906101000a900460ff161515610e84576040517f08c379a00000000000000000000000000000000000000000000000000000000081526004018080602001828103825260258152602001807f436f6e74726163742069732063757272656e746c79206e6f74206f706572617481526020017f696f6e616c00000000000000000000000000000000000000000000000000000081525060400191505060405180910390fd5b610ec18686868080601f01602080910402602001604051908101604052809392919081815260200183838082843782019150505050505085613201565b9050600460008873ffffffffffffffffffffffffffffffffffffffff1673ffffffffffffffffffffffffffffffffffffffff168152602001908152602001600020600001600082600019166000191681526020019081526020016000205491505095945050505050565b6000600360008373ffffffffffffffffffffffffffffffffffffffff1673ffffffffffffffffffffffffffffffffffffffff16815260200190815260200160002060009054906101000a900460ff169050919050565b6000809054906101000a900473ffffffffffffffffffffffffffffffffffffffff1673ffffffffffffffffffffffffffffffffffffffff163373ffffffffffffffffffffffffffffffffffffffff16141515611045576040517f08c379a000000000000000000000000000000000000000000000000000000000815260040180806020018281038252601c8152602001807f43616c6c6572206973206e6f7420636f6e7472616374206f776e65720000000081525060200191505060405180910390fd5b600060149054906101000a900460ff1615156110ef576040517f08c379a00000000000000000000000000000000000000000000000000000000081526004018080602001828103825260258152602001807f436f6e74726163742069732063757272656e746c79206e6f74206f706572617481526020017f696f6e616c00000000000000000000000000000000000000000000000000000081525060400191505060405180910390fd5b600360008273ffffffffffffffffffffffffffffffffffffffff1673ffffffffffffffffffffffffffffffffffffffff16815260200190815260200160002060006101000a81549060ff021916905550565b6000600254905090565b60008060149054906101000a900460ff1615156111f6576040517f08c379a00000000000000000000000000000000000000000000000000000000081526004018080602001828103825260258152602001807f436f6e74726163742069732063757272656e746c79206e6f74206f706572617481526020017f696f6e616c00000000000000000000000000000000000000000000000000000081525060400191505060405180910390fd5b600360003373ffffffffffffffffffffffffffffffffffffffff1673ffffffffffffffffffffffffffffffffffffffff16815260200190815260200160002060009054906101000a900460ff1615156112dd576040517f08c379a00000000000000000000000000000000000000000000000000000000081526004018080602001828103825260218152602001807f43616c6c6572206973206e6f7420617574686f72697a656420636f6e7472616381526020017f740000000000000000000000000000000000000000000000000000000000000081525060400191505060405180910390fd5b6000600460008473ffffffffffffffffffffffffffffffffffffffff1673ffffffffffffffffffffffffffffffffffffffff16815260200190815260200160002060010154111515611397576040517f08c379a00000000000000000000000000000000000000000000000000000000081526004018080602001828103825260178152602001807f50617373656e6765722068617665206e6f206d6f6e657900000000000000000081525060200191505060405180910390fd5b600460008373ffffffffffffffffffffffffffffffffffffffff1673ffffffffffffffffffffffffffffffffffffffff168152602001908152602001600020600101549050803073ffffffffffffffffffffffffffffffffffffffff16311015151561146b576040517f08c379a000000000000000000000000000000000000000000000000000000000815260040180806020018281038252601f8152602001807f436f6e74726163742068617320696e73756666696369656e742066756e64730081525060200191505060405180910390fd5b6000600460008473ffffffffffffffffffffffffffffffffffffffff1673ffffffffffffffffffffffffffffffffffffffff168152602001908152602001600020600101819055508173ffffffffffffffffffffffffffffffffffffffff166108fc829081150290604051600060405180830381858888f193505050501580156114f9573d6000803e3d6000fd5b507fa25a8009d1febaa62db448ad136c5d29a21c5419e094d8dafc752aee2a2de6808282604051808373ffffffffffffffffffffffffffffffffffffffff1673ffffffffffffffffffffffffffffffffffffffff1681526020018281526020019250505060405180910390a15050565b60008060149054906101000a900460ff161515611614576040517f08c379a00000000000000000000000000000000000000000000000000000000081526004018080602001828103825260258152602001807f436f6e74726163742069732063757272656e746c79206e6f74206f706572617481526020017f696f6e616c00000000000000000000000000000000000000000000000000000081525060400191505060405180910390fd5b600360003373ffffffffffffffffffffffffffffffffffffffff1673ffffffffffffffffffffffffffffffffffffffff16815260200190815260200160002060009054906101000a900460ff1615156116fb576040517f08c379a00000000000000000000000000000000000000000000000000000000081526004018080602001828103825260218152602001807f43616c6c6572206973206e6f7420617574686f72697a656420636f6e7472616381526020017f740000000000000000000000000000000000000000000000000000000000000081525060400191505060405180910390fd5b6117388686868080601f01602080910402602001604051908101604052809392919081815260200183838082843782019150505050505085613201565b905060056000826000191660001916815260200190815260200160002060010160009054906101000a900460ff1615156117da576040517f08c379a00000000000000000000000000000000000000000000000000000000081526004018080602001828103825260138152602001807f466c6967687420646f206e6f742065786973740000000000000000000000000081525060200191505060405180910390fd5b61184882600460008a73ffffffffffffffffffffffffffffffffffffffff1673ffffffffffffffffffffffffffffffffffffffff168152602001908152602001600020600001600084600019166000191681526020019081526020016000205461332690919063ffffffff16565b600460008973ffffffffffffffffffffffffffffffffffffffff1673ffffffffffffffffffffffffffffffffffffffff16815260200190815260200160002060000160008360001916600019168152602001908152602001600020819055506005600082600019166000191681526020019081526020016000206000018790806001815401808255809150509060018203906000526020600020016000909192909190916101000a81548173ffffffffffffffffffffffffffffffffffffffff021916908373ffffffffffffffffffffffffffffffffffffffff160217905550507f692b3c812f9e48f0b0f8379d3189f1a9d0759faf9c9a45b2418cbc27d8a63fa6868686868b87604051808773ffffffffffffffffffffffffffffffffffffffff1673ffffffffffffffffffffffffffffffffffffffff168152602001806020018581526020018473ffffffffffffffffffffffffffffffffffffffff1673ffffffffffffffffffffffffffffffffffffffff1681526020018381526020018281038252878782818152602001925080828437820191505097505050505050505060405180910390a150505050505050565b600080600060149054906101000a900460ff161515611aa8576040517f08c379a00000000000000000000000000000000000000000000000000000000081526004018080602001828103825260258152602001807f436f6e74726163742069732063757272656e746c79206e6f74206f706572617481526020017f696f6e616c00000000000000000000000000000000000000000000000000000081525060400191505060405180910390fd5b611ae58686868080601f01602080910402602001604051908101604052809392919081815260200183838082843782019150505050505085613201565b905060056000826000191660001916815260200190815260200160002060010160009054906101000a900460ff161515611b87576040517f08c379a00000000000000000000000000000000000000000000000000000000081526004018080602001828103825260138152602001807f466c6967687420646f206e6f742065786973740000000000000000000000000081525060200191505060405180910390fd5b60056000826000191660001916815260200190815260200160002060010160019054906101000a900460ff16915050949350505050565b600060149054906101000a900460ff161515611c68576040517f08c379a00000000000000000000000000000000000000000000000000000000081526004018080602001828103825260258152602001807f436f6e74726163742069732063757272656e746c79206e6f74206f706572617481526020017f696f6e616c00000000000000000000000000000000000000000000000000000081525060400191505060405180910390fd5b600360003373ffffffffffffffffffffffffffffffffffffffff1673ffffffffffffffffffffffffffffffffffffffff16815260200190815260200160002060009054906101000a900460ff161515611d4f576040517f08c379a00000000000000000000000000000000000000000000000000000000081526004018080602001828103825260218152602001807f43616c6c6572206973206e6f7420617574686f72697a656420636f6e7472616381526020017f740000000000000000000000000000000000000000000000000000000000000081525060400191505060405180910390fd5b600073ffffffffffffffffffffffffffffffffffffffff168473ffffffffffffffffffffffffffffffffffffffff1614151515611df4576040517f08c379a000000000000000000000000000000000000000000000000000000000815260040180806020018281038252600f8152602001807f696e76616c69642061646472657373000000000000000000000000000000000081525060200191505060405180910390fd5b801515600160008673ffffffffffffffffffffffffffffffffffffffff1673ffffffffffffffffffffffffffffffffffffffff16815260200190815260200160002060010160009054906101000a900460ff16151514151515611ee5576040517f08c379a00000000000000000000000000000000000000000000000000000000081526004018080602001828103825260288152602001807f4169726c696e65206973526567697374657220737461747573206973206e6f7481526020017f206368616e67656400000000000000000000000000000000000000000000000081525060400191505060405180910390fd5b8015611fae5760026000815480929190600101919050555080600160008673ffffffffffffffffffffffffffffffffffffffff1673ffffffffffffffffffffffffffffffffffffffff16815260200190815260200160002060010160006101000a81548160ff0219169083151502179055508282600160008773ffffffffffffffffffffffffffffffffffffffff1673ffffffffffffffffffffffffffffffffffffffff1681526020019081526020016000206000019190611fa8929190613390565b50612030565b60026000815480929190600190039190505550600160008573ffffffffffffffffffffffffffffffffffffffff1673ffffffffffffffffffffffffffffffffffffffff168152602001908152602001600020600080820160006120119190613410565b6001820160006101000a81549060ff0219169055600282016000905550505b7fdbb31e2c804ee5d5ee281eee227f7905aff16b2e0058520532f932bf420478f084848484604051808573ffffffffffffffffffffffffffffffffffffffff1673ffffffffffffffffffffffffffffffffffffffff1681526020018060200183151515158152602001828103825285858281815260200192508082843782019150509550505050505060405180910390a150505050565b600080600080600060149054906101000a900460ff161515612177576040517f08c379a00000000000000000000000000000000000000000000000000000000081526004018080602001828103825260258152602001807f436f6e74726163742069732063757272656e746c79206e6f74206f706572617481526020017f696f6e616c00000000000000000000000000000000000000000000000000000081525060400191505060405180910390fd5b600360003373ffffffffffffffffffffffffffffffffffffffff1673ffffffffffffffffffffffffffffffffffffffff16815260200190815260200160002060009054906101000a900460ff16151561225e576040517f08c379a00000000000000000000000000000000000000000000000000000000081526004018080602001828103825260218152602001807f43616c6c6572206973206e6f7420617574686f72697a656420636f6e7472616381526020017f740000000000000000000000000000000000000000000000000000000000000081525060400191505060405180910390fd5b61229b8989898080601f01602080910402602001604051908101604052809392919081815260200183838082843782019150505050505088613201565b935060056000856000191660001916815260200190815260200160002060010160009054906101000a900460ff16151561233d576040517f08c379a00000000000000000000000000000000000000000000000000000000081526004018080602001828103825260138152602001807f466c6967687420646f206e6f742065786973740000000000000000000000000081525060200191505060405180910390fd5b600092505b60056000856000191660001916815260200190815260200160002060000180549050831015612566576005600085600019166000191681526020019081526020016000206000018381548110151561239657fe5b9060005260206000200160009054906101000a900473ffffffffffffffffffffffffffffffffffffffff169150612444606461243687600460008773ffffffffffffffffffffffffffffffffffffffff1673ffffffffffffffffffffffffffffffffffffffff168152602001908152602001600020600001600089600019166000191681526020019081526020016000205461334290919063ffffffff16565b61337a90919063ffffffff16565b90506000600460008473ffffffffffffffffffffffffffffffffffffffff1673ffffffffffffffffffffffffffffffffffffffff168152602001908152602001600020600001600086600019166000191681526020019081526020016000208190555080600460008473ffffffffffffffffffffffffffffffffffffffff1673ffffffffffffffffffffffffffffffffffffffff168152602001908152602001600020600101819055507f868591bb2b953c2ab9230c3d982fc24b5b255e5d8d9bcd0c1a5e6ad5cddccab68282604051808373ffffffffffffffffffffffffffffffffffffffff1673ffffffffffffffffffffffffffffffffffffffff1681526020018281526020019250505060405180910390a18280600101935050612342565b505050505050505050565b6000600360003373ffffffffffffffffffffffffffffffffffffffff1673ffffffffffffffffffffffffffffffffffffffff16815260200190815260200160002060009054906101000a900460ff16151561265a576040517f08c379a00000000000000000000000000000000000000000000000000000000081526004018080602001828103825260218152602001807f43616c6c6572206973206e6f7420617574686f72697a656420636f6e7472616381526020017f740000000000000000000000000000000000000000000000000000000000000081525060400191505060405180910390fd5b600160008373ffffffffffffffffffffffffffffffffffffffff1673ffffffffffffffffffffffffffffffffffffffff16815260200190815260200160002060010160009054906101000a900460ff169050919050565b60008060149054906101000a900460ff16905090565b60008060149054906101000a900460ff161515612772576040517f08c379a00000000000000000000000000000000000000000000000000000000081526004018080602001828103825260258152602001807f436f6e74726163742069732063757272656e746c79206e6f74206f706572617481526020017f696f6e616c00000000000000000000000000000000000000000000000000000081525060400191505060405180910390fd5b600360003373ffffffffffffffffffffffffffffffffffffffff1673ffffffffffffffffffffffffffffffffffffffff16815260200190815260200160002060009054906101000a900460ff161515612859576040517f08c379a00000000000000000000000000000000000000000000000000000000081526004018080602001828103825260218152602001807f43616c6c6572206973206e6f7420617574686f72697a656420636f6e7472616381526020017f740000000000000000000000000000000000000000000000000000000000000081525060400191505060405180910390fd5b6128968686868080601f01602080910402602001604051908101604052809392919081815260200183838082843782019150505050505085613201565b905060056000826000191660001916815260200190815260200160002060010160009054906101000a900460ff16151515612939576040517f08c379a000000000000000000000000000000000000000000000000000000000815260040180806020018281038252600c8152602001807f466c69676874206578697374000000000000000000000000000000000000000081525060200191505060405180910390fd5b60c06040519081016040528060006040519080825280602002602001820160405280156129755781602001602082028038833980820191505090505b5081526020016001151581526020018360ff1681526020018481526020018773ffffffffffffffffffffffffffffffffffffffff16815260200186868080601f0160208091040260200160405190810160405280939291908181526020018383808284378201915050505050508152506005600083600019166000191681526020019081526020016000206000820151816000019080519060200190612a1c929190613458565b5060208201518160010160006101000a81548160ff02191690831515021790555060408201518160010160016101000a81548160ff021916908360ff1602179055506060820151816002015560808201518160030160006101000a81548173ffffffffffffffffffffffffffffffffffffffff021916908373ffffffffffffffffffffffffffffffffffffffff16021790555060a0820151816004019080519060200190612acb9291906134e2565b509050507f33d6803b8027609e7684ed5aca6c67f514e00df839c236c215bb89f2bdd4b2aa8686868686604051808673ffffffffffffffffffffffffffffffffffffffff1673ffffffffffffffffffffffffffffffffffffffff168152602001806020018481526020018360ff1660ff16815260200182810382528686828181526020019250808284378201915050965050505050505060405180910390a1505050505050565b60008060149054906101000a900460ff161515612c1d576040517f08c379a00000000000000000000000000000000000000000000000000000000081526004018080602001828103825260258152602001807f436f6e74726163742069732063757272656e746c79206e6f74206f706572617481526020017f696f6e616c00000000000000000000000000000000000000000000000000000081525060400191505060405180910390fd5b600360003373ffffffffffffffffffffffffffffffffffffffff1673ffffffffffffffffffffffffffffffffffffffff16815260200190815260200160002060009054906101000a900460ff161515612d04576040517f08c379a00000000000000000000000000000000000000000000000000000000081526004018080602001828103825260218152602001807f43616c6c6572206973206e6f7420617574686f72697a656420636f6e7472616381526020017f740000000000000000000000000000000000000000000000000000000000000081525060400191505060405180910390fd5b612d418686868080601f01602080910402602001604051908101604052809392919081815260200183838082843782019150505050505085613201565b905060056000826000191660001916815260200190815260200160002060010160009054906101000a900460ff161515612de3576040517f08c379a00000000000000000000000000000000000000000000000000000000081526004018080602001828103825260138152602001807f466c6967687420646f206e6f742065786973740000000000000000000000000081525060200191505060405180910390fd5b8160ff1660056000836000191660001916815260200190815260200160002060010160019054906101000a900460ff1660ff1614151515612e8c576040517f08c379a00000000000000000000000000000000000000000000000000000000081526004018080602001828103825260178152602001807f53746174757320636f6465206973207468652073616d6500000000000000000081525060200191505060405180910390fd5b8160056000836000191660001916815260200190815260200160002060010160016101000a81548160ff021916908360ff1602179055507f3f8930fd52e84bc32c0c2e5d060a9cfa59066160d5197e39f17d16ebbcaa7db68686868686604051808673ffffffffffffffffffffffffffffffffffffffff1673ffffffffffffffffffffffffffffffffffffffff168152602001806020018481526020018360ff1660ff16815260200182810382528686828181526020019250808284378201915050965050505050505060405180910390a1505050505050565b600060149054906101000a900460ff161515613010576040517f08c379a00000000000000000000000000000000000000000000000000000000081526004018080602001828103825260258152602001807f436f6e74726163742069732063757272656e746c79206e6f74206f706572617481526020017f696f6e616c00000000000000000000000000000000000000000000000000000081525060400191505060405180910390fd5b600360003373ffffffffffffffffffffffffffffffffffffffff1673ffffffffffffffffffffffffffffffffffffffff16815260200190815260200160002060009054906101000a900460ff1615156130f7576040517f08c379a00000000000000000000000000000000000000000000000000000000081526004018080602001828103825260218152602001807f43616c6c6572206973206e6f7420617574686f72697a656420636f6e7472616381526020017f740000000000000000000000000000000000000000000000000000000000000081525060400191505060405180910390fd5b61314c81600160008573ffffffffffffffffffffffffffffffffffffffff1673ffffffffffffffffffffffffffffffffffffffff1681526020019081526020016000206002015461332690919063ffffffff16565b600160008473ffffffffffffffffffffffffffffffffffffffff1673ffffffffffffffffffffffffffffffffffffffff168152602001908152602001600020600201819055507fe3e3c2f23f7445131259937f93b9ed0c075fe06c9d702be2d7ac549d0ec5fc328282604051808373ffffffffffffffffffffffffffffffffffffffff1673ffffffffffffffffffffffffffffffffffffffff1681526020018281526020019250505060405180910390a15050565b6000838383604051602001808473ffffffffffffffffffffffffffffffffffffffff1673ffffffffffffffffffffffffffffffffffffffff166c0100000000000000000000000002815260140183805190602001908083835b60208310151561327f578051825260208201915060208101905060208303925061325a565b6001836020036101000a03801982511681845116808217855250505050505090500182815260200193505050506040516020818303038152906040526040518082805190602001908083835b6020831015156132f057805182526020820191506020810190506020830392506132cb565b6001836020036101000a038019825116818451168082178552505050505050905001915050604051809103902090509392505050565b6000818301905082811015151561333957fe5b80905092915050565b6000808314156133555760009050613374565b818302905081838281151561336657fe5b0414151561337057fe5b8090505b92915050565b6000818381151561338757fe5b04905092915050565b828054600181600116156101000203166002900490600052602060002090601f016020900481019282601f106133d157803560ff19168380011785556133ff565b828001600101855582156133ff579182015b828111156133fe5782358255916020019190600101906133e3565b5b50905061340c9190613562565b5090565b50805460018160011615610100020316600290046000825580601f106134365750613455565b601f0160209004906000526020600020908101906134549190613562565b5b50565b8280548282559060005260206000209081019282156134d1579160200282015b828111156134d05782518260006101000a81548173ffffffffffffffffffffffffffffffffffffffff021916908373ffffffffffffffffffffffffffffffffffffffff16021790555091602001919060010190613478565b5b5090506134de9190613587565b5090565b828054600181600116156101000203166002900490600052602060002090601f016020900481019282601f1061352357805160ff1916838001178555613551565b82800160010185558215613551579182015b82811115613550578251825591602001919060010190613535565b5b50905061355e9190613562565b5090565b61358491905b80821115613580576000816000905550600101613568565b5090565b90565b6135c791905b808211156135c357600081816101000a81549073ffffffffffffffffffffffffffffffffffffffff02191690555060010161358d565b5090565b905600a165627a7a723058206b99dff75daf13eed5cc37e5e456fab2fa5e0cf5db8a93589f5bdd186853e6600029",
  "source": "pragma solidity ^0.4.25;\n\nimport \"../node_modules/openzeppelin-solidity/contracts/math/SafeMath.sol\";\n\ncontract FlightSuretyData {\n    using SafeMath for uint256;\n\n    /********************************************************************************************/\n    /*                                       DATA VARIABLES                                     */\n    /********************************************************************************************/\n\n    address private contractOwner;                                      // Account used to deploy contract\n    bool private operational = true;                                    // Blocks all state changes throughout the contract if false\n\n    struct Airline {\n        string name;\n        bool isRegistered;\n        uint256 funded;\n    }\n    mapping(address => Airline) private airlines;\n    uint256 private airlineCount = 0;\n\n    mapping(address => bool) private authorizedContracts;\n\n    // Passenger\n    struct Passenger{\n        mapping(bytes32 => uint256) boughtFlight;\n        uint256 credit;\n    }\n    mapping (address => Passenger) passengersFunded;\n\n    // Flights\n    struct Flight {\n        address[] insuredPassenger;\n        bool isRegistered;\n        uint8 statusCode;\n        uint256 timestamp;\n        address airline;\n        string flight;\n    }\n    mapping(bytes32 => Flight) private flights;\n\n    /********************************************************************************************/\n    /*                                       EVENT DEFINITIONS                                  */\n    /********************************************************************************************/\n\n    event AirlineRegistered(address airline, string name, bool isRegistered);\n    event AirlineFunded(address addr, uint256 amount);\n    event FlightRegistered(address airline, string flight, uint256 timestamp, uint8 statusCode);\n    event BoughtInsurance(address airline, string flight, uint256 timestamp, address passenger, uint256 amount);\n    event FlightStatusUpdated(address airline, string flight, uint256 timestamp, uint8 statusCode);\n    event InsureeCredited(address passenger, uint256 amount);\n    event PassengerWithdrawn(address passenger, uint256 amount);\n\n    /**\n    * @dev Constructor\n    *      The deploying account becomes contractOwner\n    */\n    constructor(address airlineAdress, string airlineName) \n                public \n    {\n        contractOwner = msg.sender;\n        airlines[airlineAdress] = Airline({\n            name: airlineName,\n            isRegistered: true,\n            funded: 0\n        });\n        airlineCount++;\n\n        emit AirlineRegistered(airlineAdress, airlineName, true);\n    }\n\n    /********************************************************************************************/\n    /*                                       FUNCTION MODIFIERS                                 */\n    /********************************************************************************************/\n\n    // Modifiers help avoid duplication of code. They are typically used to validate something\n    // before a function is allowed to be executed.\n\n    /**\n    * @dev Modifier that requires the \"operational\" boolean variable to be \"true\"\n    *      This is used on all state changing functions to pause the contract in \n    *      the event there is an issue that needs to be fixed\n    */\n    modifier requireIsOperational() \n    {\n        require(operational, \"Contract is currently not operational\");\n        _;  // All modifiers require an \"_\" which indicates where the function body will be added\n    }\n\n    /**\n    * @dev Modifier that requires the \"ContractOwner\" account to be the function caller\n    */\n    modifier requireContractOwner()\n    {\n        require(msg.sender == contractOwner, \"Caller is not contract owner\");\n        _;\n    }\n\n    /**\n    * @dev Modifier that requires the \"authorizedContract\" account to be the function caller\n    */\n    modifier requireCallerAuthorized()\n    {\n        require(authorizedContracts[msg.sender], \"Caller is not authorized contract\");\n        _;\n    }\n\n    /********************************************************************************************/\n    /*                                       UTILITY FUNCTIONS                                  */\n    /********************************************************************************************/\n\n    /**\n    * @dev Get operating status of contract\n    *\n    * @return A bool that is the current operating status\n    */      \n    function isOperational() \n                            public \n                            view \n                            returns(bool) \n    {\n        return operational;\n    }\n\n\n    /**\n    * @dev Sets contract operations on/off\n    *\n    * When operational mode is disabled, all write transactions except for this one will fail\n    */    \n    function setOperatingStatus(bool mode) \n                            external\n                            requireContractOwner \n    {\n        // require(operational != mode, \"Operational and new mode is not changed\");\n        operational = mode;\n    }\n\n    /********************************************************************************************/\n    /*                                     SMART CONTRACT FUNCTIONS                             */\n    /********************************************************************************************/\n\n    /********************************************************************************************/\n    // Airline\n   /**\n    * @dev Add an airline to the registration queue\n    *      Can only be called from FlightSuretyApp contract\n    *\n    */   \n    function registerAirline(address airlineAdress, string airlineName, bool isRegistered)\n                            external\n                            requireIsOperational\n                            requireCallerAuthorized\n    {\n        require(airlineAdress != address(0), \"invalid address\");\n        require(airlines[airlineAdress].isRegistered != isRegistered, \"Airline isRegister status is not changed\");\n        if (isRegistered){\n            airlineCount++;\n            airlines[airlineAdress].isRegistered = isRegistered;\n            airlines[airlineAdress].name = airlineName;\n        } else {\n            airlineCount--;\n            delete airlines[airlineAdress];\n        }\n\n        emit AirlineRegistered(airlineAdress, airlineName, isRegistered);\n    }\n\n    function fundAirline(address account, uint256 value)\n                            external\n                            requireIsOperational\n                            requireCallerAuthorized\n    {\n        airlines[account].funded = airlines[account].funded.add(value);\n\n        emit AirlineFunded(account, value);\n    }\n\n    function getFunded(address account)\n                        external\n                        view\n                        requireCallerAuthorized\n                        returns(uint256) \n    {\n        return airlines[account].funded;\n    }\n\n    function isRegistered(address account)\n                        external\n                        view\n                        requireCallerAuthorized\n                        returns(bool) \n    {\n        return airlines[account].isRegistered;\n    }\n\n    /**\n    * @dev Get number of Airline\n    *\n    */   \n    function getAirlineCount() \n                        external \n                        view \n                        returns(uint256)\n    {\n        return airlineCount;\n    }\n\n    /********************************************************************************************/\n    // Passenger\n   /**\n    * @dev Buy insurance for a flight\n    *\n    */   \n    function buyInsurance(address passenger, address airline, string flight, uint256 timestamp, uint256 value)\n                            external\n                            requireIsOperational\n                            requireCallerAuthorized\n    {\n        bytes32 flightKey = getFlightKey(airline, flight, timestamp);\n        require(flights[flightKey].isRegistered, \"Flight do not exist\");\n        passengersFunded[passenger].boughtFlight[flightKey] = passengersFunded[passenger].boughtFlight[flightKey].add(value);\n        flights[flightKey].insuredPassenger.push(passenger);\n\n        emit BoughtInsurance(airline, flight, timestamp, passenger, value);\n    }\n\n    function getInsurance(address passenger, address airline, string flight, uint256 timestamp)\n                            external\n                            view\n                            requireIsOperational\n                            returns(uint256)\n    {\n        bytes32 flightKey = getFlightKey(airline, flight, timestamp);\n        return passengersFunded[passenger].boughtFlight[flightKey];\n    }\n\n    /**\n     *  @dev Credits payouts to insurees\n    */\n    function creditInsurees(address airline, string flight, uint256 timestamp, uint256 multiplier_percentage)\n                                external\n                                requireIsOperational\n                                requireCallerAuthorized\n    {\n        bytes32 flightKey = getFlightKey(airline, flight, timestamp);\n        require(flights[flightKey].isRegistered, \"Flight do not exist\");\n        for (uint i = 0; i < flights[flightKey].insuredPassenger.length; i++) {\n            address passenger = flights[flightKey].insuredPassenger[i];\n            uint256 credit = passengersFunded[passenger].boughtFlight[flightKey].mul(multiplier_percentage).div(100);\n            passengersFunded[passenger].boughtFlight[flightKey] = 0;\n            passengersFunded[passenger].credit = credit;\n\n            emit InsureeCredited(passenger, credit);\n        }\n    }\n\n    function getPassengerCredit(address passenger)\n                                external\n                                view\n                                requireIsOperational\n                                requireCallerAuthorized\n                                returns(uint256)\n    {\n        return passengersFunded[passenger].credit;\n    }\n    \n\n    /**\n     *  @dev Transfers eligible payout funds to insuree\n     *\n    */\n    function payInsuree(address passenger)\n                external\n                payable\n                requireIsOperational\n                requireCallerAuthorized\n    {\n        require(passengersFunded[passenger].credit > 0, \"Passenger have no money\");\n        uint256 credit = passengersFunded[passenger].credit;\n        require(address(this).balance >= credit, \"Contract has insufficient funds\");\n        passengersFunded[passenger].credit = 0;\n        passenger.transfer(credit);\n\n        emit PassengerWithdrawn(passenger, credit);\n    }\n\n    /********************************************************************************************/\n    // Flight\n   /**\n    * @dev Initial funding for the insurance. Unless there are too many delayed flights\n    *      resulting in insurance payouts, the contract should be self-sustaining\n    *\n    */   \n    function fund\n                            (   \n                            )\n                            public\n                            payable\n                            requireIsOperational\n    {\n    }\n\n    function registerFlight(address airline, string flight, uint256 timestamp, uint8 status_code)\n                            external\n                            requireIsOperational\n                            requireCallerAuthorized\n    {\n        bytes32 flightKey = getFlightKey(airline, flight, timestamp);\n        require(!flights[flightKey].isRegistered, \"Flight exist\");\n        flights[flightKey] = Flight({\n            insuredPassenger: new address[](0),\n            isRegistered: true,\n            statusCode: status_code,\n            timestamp: timestamp,\n            airline: airline,\n            flight: flight\n        });\n        \n        emit FlightRegistered(airline, flight, timestamp, status_code);\n    }\n\n    function processFlightStatus(address airline,\n                                string flight,\n                                uint256 timestamp,\n                                uint8 status_code)\n                                external\n                                requireIsOperational\n                                requireCallerAuthorized\n    {\n        bytes32 flightKey = getFlightKey(airline, flight, timestamp);\n        require(flights[flightKey].isRegistered, \"Flight do not exist\");\n        require(flights[flightKey].statusCode != status_code, \"Status code is the same\");\n        flights[flightKey].statusCode = status_code;\n\n        emit FlightStatusUpdated(airline, flight, timestamp, status_code);\n    }\n\n    function getFlightStatus(address airline,\n                            string flight,\n                            uint256 timestamp)\n                            external\n                            view\n                            requireIsOperational\n                            returns(uint8)\n    {\n        bytes32 flightKey = getFlightKey(airline, flight, timestamp);\n        require(flights[flightKey].isRegistered, \"Flight do not exist\");\n        return flights[flightKey].statusCode;\n    }\n\n    function getFlightKey(address airline,\n                        string memory flight,\n                        uint256 timestamp)\n                        pure\n                        internal\n                        returns(bytes32) \n    {\n        return keccak256(abi.encodePacked(airline, flight, timestamp));\n    }\n\n    /**\n    * @dev Fallback function for funding smart contract.\n    *\n    */\n    function() \n                            external \n                            payable \n    {\n        fund();\n    }\n\n    \n    /**\n    * @dev 3 functions for controlling AuthorizedContracts.\n    *\n    */\n    function isAuthorizedCaller(address newContract) \n                            external \n                            view\n                            returns(bool)\n    {\n        return authorizedContracts[newContract];\n    }\n\n    function authorizeCaller(address newAppContract) \n                            external \n                            requireContractOwner\n                            requireIsOperational\n    {\n        authorizedContracts[newAppContract] = true;\n    }\n\n    function deauthorizeCaller(address authorizedContract) \n                            external \n                            requireContractOwner\n                            requireIsOperational\n    {\n        delete authorizedContracts[authorizedContract];\n    }\n}\n\n",
  "sourcePath": "/Users/duydo/Projects/Crypto/Udacity/udacity-blockchain-developer-nanodegree/4. Project 4 FlightSurety/contracts/FlightSuretyData.sol",
  "compiler": {
    "name": "solc",
    "version": "0.4.26+commit.4563c3fc.Emscripten.clang"
  },
  "schemaVersion": "3.4.6",
  "updatedAt": "2022-04-07T16:13:26.877Z",
  "networkType": "ethereum",
  "devdoc": {
    "methods": {
      "buyInsurance(address,address,string,uint256,uint256)": {
        "details": "Buy insurance for a flight    "
      },
      "creditInsurees(address,string,uint256,uint256)": {
        "details": "Credits payouts to insurees"
      },
      "fund()": {
        "details": "Initial funding for the insurance. Unless there are too many delayed flights     resulting in insurance payouts, the contract should be self-sustaining    "
      },
      "getAirlineCount()": {
        "details": "Get number of Airline    "
      },
      "isAuthorizedCaller(address)": {
        "details": "3 functions for controlling AuthorizedContracts.    "
      },
      "isOperational()": {
        "details": "Get operating status of contract",
        "return": "A bool that is the current operating status"
      },
      "payInsuree(address)": {
        "details": "Transfers eligible payout funds to insuree    "
      },
      "registerAirline(address,string,bool)": {
        "details": "Add an airline to the registration queue     Can only be called from FlightSuretyApp contract    "
      },
      "setOperatingStatus(bool)": {
        "details": "Sets contract operations on/off    * When operational mode is disabled, all write transactions except for this one will fail"
      }
    }
  },
  "userdoc": {
    "methods": {}
  }
}