{
  "contractName": "FlightSuretyData",
  "abi": [
    {
      "inputs": [
        {
          "name": "airlineAdress",
          "type": "address"
        }
      ],
      "payable": false,
      "stateMutability": "nonpayable",
      "type": "constructor"
    },
    {
      "payable": true,
      "stateMutability": "payable",
      "type": "fallback"
    },
    {
      "anonymous": false,
      "inputs": [
        {
          "indexed": false,
          "name": "airline",
          "type": "address"
        },
        {
          "indexed": false,
          "name": "isRegistered",
          "type": "bool"
        }
      ],
      "name": "AirlineRegistered",
      "type": "event"
    },
    {
      "anonymous": false,
      "inputs": [
        {
          "indexed": false,
          "name": "addr",
          "type": "address"
        },
        {
          "indexed": false,
          "name": "amount",
          "type": "uint256"
        }
      ],
      "name": "AirlineFunded",
      "type": "event"
    },
    {
      "anonymous": false,
      "inputs": [
        {
          "indexed": false,
          "name": "airline",
          "type": "address"
        },
        {
          "indexed": false,
          "name": "flight",
          "type": "string"
        },
        {
          "indexed": false,
          "name": "timestamp",
          "type": "uint256"
        },
        {
          "indexed": false,
          "name": "statusCode",
          "type": "uint8"
        }
      ],
      "name": "FlightRegistered",
      "type": "event"
    },
    {
      "anonymous": false,
      "inputs": [
        {
          "indexed": false,
          "name": "airline",
          "type": "address"
        },
        {
          "indexed": false,
          "name": "flight",
          "type": "string"
        },
        {
          "indexed": false,
          "name": "timestamp",
          "type": "uint256"
        },
        {
          "indexed": false,
          "name": "passenger",
          "type": "address"
        },
        {
          "indexed": false,
          "name": "amount",
          "type": "uint256"
        }
      ],
      "name": "BoughtInsurance",
      "type": "event"
    },
    {
      "anonymous": false,
      "inputs": [
        {
          "indexed": false,
          "name": "airline",
          "type": "address"
        },
        {
          "indexed": false,
          "name": "flight",
          "type": "string"
        },
        {
          "indexed": false,
          "name": "timestamp",
          "type": "uint256"
        },
        {
          "indexed": false,
          "name": "statusCode",
          "type": "uint8"
        }
      ],
      "name": "FlightStatusUpdated",
      "type": "event"
    },
    {
      "anonymous": false,
      "inputs": [
        {
          "indexed": false,
          "name": "passenger",
          "type": "address"
        },
        {
          "indexed": false,
          "name": "amount",
          "type": "uint256"
        }
      ],
      "name": "InsureeCredited",
      "type": "event"
    },
    {
      "anonymous": false,
      "inputs": [
        {
          "indexed": false,
          "name": "passenger",
          "type": "address"
        },
        {
          "indexed": false,
          "name": "amount",
          "type": "uint256"
        }
      ],
      "name": "PassengerWithdrawn",
      "type": "event"
    },
    {
      "constant": true,
      "inputs": [],
      "name": "isOperational",
      "outputs": [
        {
          "name": "",
          "type": "bool"
        }
      ],
      "payable": false,
      "stateMutability": "view",
      "type": "function"
    },
    {
      "constant": false,
      "inputs": [
        {
          "name": "mode",
          "type": "bool"
        }
      ],
      "name": "setOperatingStatus",
      "outputs": [],
      "payable": false,
      "stateMutability": "nonpayable",
      "type": "function"
    },
    {
      "constant": false,
      "inputs": [
        {
          "name": "airlineAdress",
          "type": "address"
        },
        {
          "name": "isRegistered",
          "type": "bool"
        }
      ],
      "name": "registerAirline",
      "outputs": [],
      "payable": false,
      "stateMutability": "nonpayable",
      "type": "function"
    },
    {
      "constant": false,
      "inputs": [
        {
          "name": "account",
          "type": "address"
        },
        {
          "name": "value",
          "type": "uint256"
        }
      ],
      "name": "fundAirline",
      "outputs": [],
      "payable": false,
      "stateMutability": "nonpayable",
      "type": "function"
    },
    {
      "constant": true,
      "inputs": [
        {
          "name": "account",
          "type": "address"
        }
      ],
      "name": "getFunded",
      "outputs": [
        {
          "name": "",
          "type": "uint256"
        }
      ],
      "payable": false,
      "stateMutability": "view",
      "type": "function"
    },
    {
      "constant": true,
      "inputs": [
        {
          "name": "account",
          "type": "address"
        }
      ],
      "name": "isRegistered",
      "outputs": [
        {
          "name": "",
          "type": "bool"
        }
      ],
      "payable": false,
      "stateMutability": "view",
      "type": "function"
    },
    {
      "constant": true,
      "inputs": [],
      "name": "getAirlineCount",
      "outputs": [
        {
          "name": "",
          "type": "uint256"
        }
      ],
      "payable": false,
      "stateMutability": "view",
      "type": "function"
    },
    {
      "constant": false,
      "inputs": [
        {
          "name": "passenger",
          "type": "address"
        },
        {
          "name": "airline",
          "type": "address"
        },
        {
          "name": "flight",
          "type": "string"
        },
        {
          "name": "timestamp",
          "type": "uint256"
        },
        {
          "name": "value",
          "type": "uint256"
        }
      ],
      "name": "buyInsurance",
      "outputs": [],
      "payable": false,
      "stateMutability": "nonpayable",
      "type": "function"
    },
    {
      "constant": true,
      "inputs": [
        {
          "name": "passenger",
          "type": "address"
        },
        {
          "name": "airline",
          "type": "address"
        },
        {
          "name": "flight",
          "type": "string"
        },
        {
          "name": "timestamp",
          "type": "uint256"
        }
      ],
      "name": "getInsurance",
      "outputs": [
        {
          "name": "",
          "type": "uint256"
        }
      ],
      "payable": false,
      "stateMutability": "view",
      "type": "function"
    },
    {
      "constant": false,
      "inputs": [
        {
          "name": "airline",
          "type": "address"
        },
        {
          "name": "flight",
          "type": "string"
        },
        {
          "name": "timestamp",
          "type": "uint256"
        },
        {
          "name": "multiplier_percentage",
          "type": "uint256"
        }
      ],
      "name": "creditInsurees",
      "outputs": [],
      "payable": false,
      "stateMutability": "nonpayable",
      "type": "function"
    },
    {
      "constant": false,
      "inputs": [
        {
          "name": "passenger",
          "type": "address"
        }
      ],
      "name": "payInsuree",
      "outputs": [],
      "payable": true,
      "stateMutability": "payable",
      "type": "function"
    },
    {
      "constant": false,
      "inputs": [],
      "name": "fund",
      "outputs": [],
      "payable": true,
      "stateMutability": "payable",
      "type": "function"
    },
    {
      "constant": false,
      "inputs": [
        {
          "name": "airline",
          "type": "address"
        },
        {
          "name": "flight",
          "type": "string"
        },
        {
          "name": "timestamp",
          "type": "uint256"
        },
        {
          "name": "status_code",
          "type": "uint8"
        }
      ],
      "name": "registerFlight",
      "outputs": [],
      "payable": false,
      "stateMutability": "nonpayable",
      "type": "function"
    },
    {
      "constant": false,
      "inputs": [
        {
          "name": "airline",
          "type": "address"
        },
        {
          "name": "flight",
          "type": "string"
        },
        {
          "name": "timestamp",
          "type": "uint256"
        },
        {
          "name": "status_code",
          "type": "uint8"
        }
      ],
      "name": "processFlightStatus",
      "outputs": [],
      "payable": false,
      "stateMutability": "nonpayable",
      "type": "function"
    },
    {
      "constant": true,
      "inputs": [
        {
          "name": "airline",
          "type": "address"
        },
        {
          "name": "flight",
          "type": "string"
        },
        {
          "name": "timestamp",
          "type": "uint256"
        }
      ],
      "name": "getFlightStatus",
      "outputs": [
        {
          "name": "",
          "type": "uint8"
        }
      ],
      "payable": false,
      "stateMutability": "view",
      "type": "function"
    },
    {
      "constant": true,
      "inputs": [
        {
          "name": "newContract",
          "type": "address"
        }
      ],
      "name": "isAuthorizedCaller",
      "outputs": [
        {
          "name": "",
          "type": "bool"
        }
      ],
      "payable": false,
      "stateMutability": "view",
      "type": "function"
    },
    {
      "constant": false,
      "inputs": [
        {
          "name": "newAppContract",
          "type": "address"
        }
      ],
      "name": "authorizeCaller",
      "outputs": [],
      "payable": false,
      "stateMutability": "nonpayable",
      "type": "function"
    },
    {
      "constant": false,
      "inputs": [
        {
          "name": "authorizedContract",
          "type": "address"
        }
      ],
      "name": "deauthorizeCaller",
      "outputs": [],
      "payable": false,
      "stateMutability": "nonpayable",
      "type": "function"
    }
  ],
  "bytecode": "0x60806040526001600060146101000a81548160ff021916908315150217905550600060025534801561003057600080fd5b5060405160208061330f83398101806040528101908080519060200190929190505050336000806101000a81548173ffffffffffffffffffffffffffffffffffffffff021916908373ffffffffffffffffffffffffffffffffffffffff16021790555060408051908101604052806001151581526020016000815250600160008373ffffffffffffffffffffffffffffffffffffffff1673ffffffffffffffffffffffffffffffffffffffff16815260200190815260200160002060008201518160000160006101000a81548160ff021916908315150217905550602082015181600101559050506002600081548092919060010191905055507f945c2c1176ed60fe5298a362ff65c5e71605de3b0be83177e24414cf14d7f21f816001604051808373ffffffffffffffffffffffffffffffffffffffff1673ffffffffffffffffffffffffffffffffffffffff168152602001821515151581526020019250505060405180910390a150613165806101aa6000396000f3006080604052600436106100fc576000357c0100000000000000000000000000000000000000000000000000000000900463ffffffff168063110466ed1461010657806316e459c5146101355780632c388d5d1461018c57806350cf1667146101cf57806359d14b41146102685780636873c21d146102c35780637f9e1808146103065780638a8c82f214610331578063901f89131461036757806395386ae2146103f65780639de5f95714610445578063b60d4288146104c4578063c0773a24146104ce578063c3c5a5471461053d578063cd905dff14610598578063d9d41226146105c7578063e7bdde3b14610639578063f1a81e72146106ab575b6101046106f8565b005b34801561011257600080fd5b506101336004803603810190808035151590602001909291905050506107a4565b005b34801561014157600080fd5b50610176600480360381019080803573ffffffffffffffffffffffffffffffffffffffff169060200190929190505050610885565b6040518082815260200191505060405180910390f35b34801561019857600080fd5b506101cd600480360381019080803573ffffffffffffffffffffffffffffffffffffffff1690602001909291905050506109b8565b005b3480156101db57600080fd5b50610252600480360381019080803573ffffffffffffffffffffffffffffffffffffffff169060200190929190803573ffffffffffffffffffffffffffffffffffffffff16906020019092919080359060200190820180359060200191909192939192939080359060200190929190505050610b81565b6040518082815260200191505060405180910390f35b34801561027457600080fd5b506102a9600480360381019080803573ffffffffffffffffffffffffffffffffffffffff169060200190929190505050610cd5565b604051808215151515815260200191505060405180910390f35b3480156102cf57600080fd5b50610304600480360381019080803573ffffffffffffffffffffffffffffffffffffffff169060200190929190505050610d2b565b005b34801561031257600080fd5b5061031b610eeb565b6040518082815260200191505060405180910390f35b610365600480360381019080803573ffffffffffffffffffffffffffffffffffffffff169060200190929190505050610ef5565b005b34801561037357600080fd5b506103f4600480360381019080803573ffffffffffffffffffffffffffffffffffffffff169060200190929190803573ffffffffffffffffffffffffffffffffffffffff1690602001909291908035906020019082018035906020019190919293919293908035906020019092919080359060200190929190505050611284565b005b34801561040257600080fd5b50610443600480360381019080803573ffffffffffffffffffffffffffffffffffffffff169060200190929190803515159060200190929190505050611716565b005b34801561045157600080fd5b506104a8600480360381019080803573ffffffffffffffffffffffffffffffffffffffff16906020019092919080359060200190820180359060200191909192939192939080359060200190929190505050611b3b565b604051808260ff1660ff16815260200191505060405180910390f35b6104cc6106f8565b005b3480156104da57600080fd5b5061053b600480360381019080803573ffffffffffffffffffffffffffffffffffffffff1690602001909291908035906020019082018035906020019190919293919293908035906020019092919080359060200190929190505050611cfe565b005b34801561054957600080fd5b5061057e600480360381019080803573ffffffffffffffffffffffffffffffffffffffff1690602001909291905050506121a8565b604051808215151515815260200191505060405180910390f35b3480156105a457600080fd5b506105ad6122e8565b604051808215151515815260200191505060405180910390f35b3480156105d357600080fd5b50610637600480360381019080803573ffffffffffffffffffffffffffffffffffffffff16906020019092919080359060200190820180359060200191909192939192939080359060200190929190803560ff1690602001909291905050506122fe565b005b34801561064557600080fd5b506106a9600480360381019080803573ffffffffffffffffffffffffffffffffffffffff16906020019092919080359060200190820180359060200191909192939192939080359060200190929190803560ff1690602001909291905050506127a9565b005b3480156106b757600080fd5b506106f6600480360381019080803573ffffffffffffffffffffffffffffffffffffffff16906020019092919080359060200190929190505050612b9d565b005b600060149054906101000a900460ff1615156107a2576040517f08c379a00000000000000000000000000000000000000000000000000000000081526004018080602001828103825260258152602001807f436f6e74726163742069732063757272656e746c79206e6f74206f706572617481526020017f696f6e616c00000000000000000000000000000000000000000000000000000081525060400191505060405180910390fd5b565b6000809054906101000a900473ffffffffffffffffffffffffffffffffffffffff1673ffffffffffffffffffffffffffffffffffffffff163373ffffffffffffffffffffffffffffffffffffffff16141515610868576040517f08c379a000000000000000000000000000000000000000000000000000000000815260040180806020018281038252601c8152602001807f43616c6c6572206973206e6f7420636f6e7472616374206f776e65720000000081525060200191505060405180910390fd5b80600060146101000a81548160ff02191690831515021790555050565b6000600360003373ffffffffffffffffffffffffffffffffffffffff1673ffffffffffffffffffffffffffffffffffffffff16815260200190815260200160002060009054906101000a900460ff16151561096e576040517f08c379a00000000000000000000000000000000000000000000000000000000081526004018080602001828103825260218152602001807f43616c6c6572206973206e6f7420617574686f72697a656420636f6e7472616381526020017f740000000000000000000000000000000000000000000000000000000000000081525060400191505060405180910390fd5b600160008373ffffffffffffffffffffffffffffffffffffffff1673ffffffffffffffffffffffffffffffffffffffff168152602001908152602001600020600101549050919050565b6000809054906101000a900473ffffffffffffffffffffffffffffffffffffffff1673ffffffffffffffffffffffffffffffffffffffff163373ffffffffffffffffffffffffffffffffffffffff16141515610a7c576040517f08c379a000000000000000000000000000000000000000000000000000000000815260040180806020018281038252601c8152602001807f43616c6c6572206973206e6f7420636f6e7472616374206f776e65720000000081525060200191505060405180910390fd5b600060149054906101000a900460ff161515610b26576040517f08c379a00000000000000000000000000000000000000000000000000000000081526004018080602001828103825260258152602001807f436f6e74726163742069732063757272656e746c79206e6f74206f706572617481526020017f696f6e616c00000000000000000000000000000000000000000000000000000081525060400191505060405180910390fd5b6001600360008373ffffffffffffffffffffffffffffffffffffffff1673ffffffffffffffffffffffffffffffffffffffff16815260200190815260200160002060006101000a81548160ff02191690831515021790555050565b600080600060149054906101000a900460ff161515610c2e576040517f08c379a00000000000000000000000000000000000000000000000000000000081526004018080602001828103825260258152602001807f436f6e74726163742069732063757272656e746c79206e6f74206f706572617481526020017f696f6e616c00000000000000000000000000000000000000000000000000000081525060400191505060405180910390fd5b610c6b8686868080601f01602080910402602001604051908101604052809392919081815260200183838082843782019150505050505085612e38565b9050600460008873ffffffffffffffffffffffffffffffffffffffff1673ffffffffffffffffffffffffffffffffffffffff168152602001908152602001600020600001600082600019166000191681526020019081526020016000205491505095945050505050565b6000600360008373ffffffffffffffffffffffffffffffffffffffff1673ffffffffffffffffffffffffffffffffffffffff16815260200190815260200160002060009054906101000a900460ff169050919050565b6000809054906101000a900473ffffffffffffffffffffffffffffffffffffffff1673ffffffffffffffffffffffffffffffffffffffff163373ffffffffffffffffffffffffffffffffffffffff16141515610def576040517f08c379a000000000000000000000000000000000000000000000000000000000815260040180806020018281038252601c8152602001807f43616c6c6572206973206e6f7420636f6e7472616374206f776e65720000000081525060200191505060405180910390fd5b600060149054906101000a900460ff161515610e99576040517f08c379a00000000000000000000000000000000000000000000000000000000081526004018080602001828103825260258152602001807f436f6e74726163742069732063757272656e746c79206e6f74206f706572617481526020017f696f6e616c00000000000000000000000000000000000000000000000000000081525060400191505060405180910390fd5b600360008273ffffffffffffffffffffffffffffffffffffffff1673ffffffffffffffffffffffffffffffffffffffff16815260200190815260200160002060006101000a81549060ff021916905550565b6000600254905090565b60008060149054906101000a900460ff161515610fa0576040517f08c379a00000000000000000000000000000000000000000000000000000000081526004018080602001828103825260258152602001807f436f6e74726163742069732063757272656e746c79206e6f74206f706572617481526020017f696f6e616c00000000000000000000000000000000000000000000000000000081525060400191505060405180910390fd5b600360003373ffffffffffffffffffffffffffffffffffffffff1673ffffffffffffffffffffffffffffffffffffffff16815260200190815260200160002060009054906101000a900460ff161515611087576040517f08c379a00000000000000000000000000000000000000000000000000000000081526004018080602001828103825260218152602001807f43616c6c6572206973206e6f7420617574686f72697a656420636f6e7472616381526020017f740000000000000000000000000000000000000000000000000000000000000081525060400191505060405180910390fd5b6000600460008473ffffffffffffffffffffffffffffffffffffffff1673ffffffffffffffffffffffffffffffffffffffff16815260200190815260200160002060010154111515611141576040517f08c379a00000000000000000000000000000000000000000000000000000000081526004018080602001828103825260178152602001807f50617373656e6765722068617665206e6f206d6f6e657900000000000000000081525060200191505060405180910390fd5b600460008373ffffffffffffffffffffffffffffffffffffffff1673ffffffffffffffffffffffffffffffffffffffff1681526020019081526020016000206001015490506000600460008473ffffffffffffffffffffffffffffffffffffffff1673ffffffffffffffffffffffffffffffffffffffff168152602001908152602001600020600101819055508173ffffffffffffffffffffffffffffffffffffffff166108fc829081150290604051600060405180830381858888f19350505050158015611214573d6000803e3d6000fd5b507fa25a8009d1febaa62db448ad136c5d29a21c5419e094d8dafc752aee2a2de6808282604051808373ffffffffffffffffffffffffffffffffffffffff1673ffffffffffffffffffffffffffffffffffffffff1681526020018281526020019250505060405180910390a15050565b60008060149054906101000a900460ff16151561132f576040517f08c379a00000000000000000000000000000000000000000000000000000000081526004018080602001828103825260258152602001807f436f6e74726163742069732063757272656e746c79206e6f74206f706572617481526020017f696f6e616c00000000000000000000000000000000000000000000000000000081525060400191505060405180910390fd5b600360003373ffffffffffffffffffffffffffffffffffffffff1673ffffffffffffffffffffffffffffffffffffffff16815260200190815260200160002060009054906101000a900460ff161515611416576040517f08c379a00000000000000000000000000000000000000000000000000000000081526004018080602001828103825260218152602001807f43616c6c6572206973206e6f7420617574686f72697a656420636f6e7472616381526020017f740000000000000000000000000000000000000000000000000000000000000081525060400191505060405180910390fd5b6114538686868080601f01602080910402602001604051908101604052809392919081815260200183838082843782019150505050505085612e38565b905060056000826000191660001916815260200190815260200160002060010160009054906101000a900460ff1615156114f5576040517f08c379a00000000000000000000000000000000000000000000000000000000081526004018080602001828103825260138152602001807f466c6967687420646f206e6f742065786973740000000000000000000000000081525060200191505060405180910390fd5b61156382600460008a73ffffffffffffffffffffffffffffffffffffffff1673ffffffffffffffffffffffffffffffffffffffff1681526020019081526020016000206000016000846000191660001916815260200190815260200160002054612f5d90919063ffffffff16565b600460008973ffffffffffffffffffffffffffffffffffffffff1673ffffffffffffffffffffffffffffffffffffffff16815260200190815260200160002060000160008360001916600019168152602001908152602001600020819055506005600082600019166000191681526020019081526020016000206000018790806001815401808255809150509060018203906000526020600020016000909192909190916101000a81548173ffffffffffffffffffffffffffffffffffffffff021916908373ffffffffffffffffffffffffffffffffffffffff160217905550507f692b3c812f9e48f0b0f8379d3189f1a9d0759faf9c9a45b2418cbc27d8a63fa6868686868b87604051808773ffffffffffffffffffffffffffffffffffffffff1673ffffffffffffffffffffffffffffffffffffffff168152602001806020018581526020018473ffffffffffffffffffffffffffffffffffffffff1673ffffffffffffffffffffffffffffffffffffffff1681526020018381526020018281038252878782818152602001925080828437820191505097505050505050505060405180910390a150505050505050565b600060149054906101000a900460ff1615156117c0576040517f08c379a00000000000000000000000000000000000000000000000000000000081526004018080602001828103825260258152602001807f436f6e74726163742069732063757272656e746c79206e6f74206f706572617481526020017f696f6e616c00000000000000000000000000000000000000000000000000000081525060400191505060405180910390fd5b600360003373ffffffffffffffffffffffffffffffffffffffff1673ffffffffffffffffffffffffffffffffffffffff16815260200190815260200160002060009054906101000a900460ff1615156118a7576040517f08c379a00000000000000000000000000000000000000000000000000000000081526004018080602001828103825260218152602001807f43616c6c6572206973206e6f7420617574686f72697a656420636f6e7472616381526020017f740000000000000000000000000000000000000000000000000000000000000081525060400191505060405180910390fd5b600073ffffffffffffffffffffffffffffffffffffffff168273ffffffffffffffffffffffffffffffffffffffff161415151561194c576040517f08c379a000000000000000000000000000000000000000000000000000000000815260040180806020018281038252600f8152602001807f696e76616c69642061646472657373000000000000000000000000000000000081525060200191505060405180910390fd5b801515600160008473ffffffffffffffffffffffffffffffffffffffff1673ffffffffffffffffffffffffffffffffffffffff16815260200190815260200160002060000160009054906101000a900460ff16151514151515611a3d576040517f08c379a00000000000000000000000000000000000000000000000000000000081526004018080602001828103825260288152602001807f4169726c696e65206973526567697374657220737461747573206973206e6f7481526020017f206368616e67656400000000000000000000000000000000000000000000000081525060400191505060405180910390fd5b80600160008473ffffffffffffffffffffffffffffffffffffffff1673ffffffffffffffffffffffffffffffffffffffff16815260200190815260200160002060000160006101000a81548160ff0219169083151502179055508015611ab457600260008154809291906001019190505550611ac8565b600260008154809291906001900391905055505b7f945c2c1176ed60fe5298a362ff65c5e71605de3b0be83177e24414cf14d7f21f8282604051808373ffffffffffffffffffffffffffffffffffffffff1673ffffffffffffffffffffffffffffffffffffffff168152602001821515151581526020019250505060405180910390a15050565b600080600060149054906101000a900460ff161515611be8576040517f08c379a00000000000000000000000000000000000000000000000000000000081526004018080602001828103825260258152602001807f436f6e74726163742069732063757272656e746c79206e6f74206f706572617481526020017f696f6e616c00000000000000000000000000000000000000000000000000000081525060400191505060405180910390fd5b611c258686868080601f01602080910402602001604051908101604052809392919081815260200183838082843782019150505050505085612e38565b905060056000826000191660001916815260200190815260200160002060010160009054906101000a900460ff161515611cc7576040517f08c379a00000000000000000000000000000000000000000000000000000000081526004018080602001828103825260138152602001807f466c6967687420646f206e6f742065786973740000000000000000000000000081525060200191505060405180910390fd5b60056000826000191660001916815260200190815260200160002060010160019054906101000a900460ff16915050949350505050565b600080600080600060149054906101000a900460ff161515611dae576040517f08c379a00000000000000000000000000000000000000000000000000000000081526004018080602001828103825260258152602001807f436f6e74726163742069732063757272656e746c79206e6f74206f706572617481526020017f696f6e616c00000000000000000000000000000000000000000000000000000081525060400191505060405180910390fd5b600360003373ffffffffffffffffffffffffffffffffffffffff1673ffffffffffffffffffffffffffffffffffffffff16815260200190815260200160002060009054906101000a900460ff161515611e95576040517f08c379a00000000000000000000000000000000000000000000000000000000081526004018080602001828103825260218152602001807f43616c6c6572206973206e6f7420617574686f72697a656420636f6e7472616381526020017f740000000000000000000000000000000000000000000000000000000000000081525060400191505060405180910390fd5b611ed28989898080601f01602080910402602001604051908101604052809392919081815260200183838082843782019150505050505088612e38565b935060056000856000191660001916815260200190815260200160002060010160009054906101000a900460ff161515611f74576040517f08c379a00000000000000000000000000000000000000000000000000000000081526004018080602001828103825260138152602001807f466c6967687420646f206e6f742065786973740000000000000000000000000081525060200191505060405180910390fd5b600092505b6005600085600019166000191681526020019081526020016000206000018054905083101561219d5760056000856000191660001916815260200190815260200160002060000183815481101515611fcd57fe5b9060005260206000200160009054906101000a900473ffffffffffffffffffffffffffffffffffffffff16915061207b606461206d87600460008773ffffffffffffffffffffffffffffffffffffffff1673ffffffffffffffffffffffffffffffffffffffff1681526020019081526020016000206000016000896000191660001916815260200190815260200160002054612f7990919063ffffffff16565b612fb190919063ffffffff16565b90506000600460008473ffffffffffffffffffffffffffffffffffffffff1673ffffffffffffffffffffffffffffffffffffffff168152602001908152602001600020600001600086600019166000191681526020019081526020016000208190555080600460008473ffffffffffffffffffffffffffffffffffffffff1673ffffffffffffffffffffffffffffffffffffffff168152602001908152602001600020600101819055507f868591bb2b953c2ab9230c3d982fc24b5b255e5d8d9bcd0c1a5e6ad5cddccab68282604051808373ffffffffffffffffffffffffffffffffffffffff1673ffffffffffffffffffffffffffffffffffffffff1681526020018281526020019250505060405180910390a18280600101935050611f79565b505050505050505050565b6000600360003373ffffffffffffffffffffffffffffffffffffffff1673ffffffffffffffffffffffffffffffffffffffff16815260200190815260200160002060009054906101000a900460ff161515612291576040517f08c379a00000000000000000000000000000000000000000000000000000000081526004018080602001828103825260218152602001807f43616c6c6572206973206e6f7420617574686f72697a656420636f6e7472616381526020017f740000000000000000000000000000000000000000000000000000000000000081525060400191505060405180910390fd5b600160008373ffffffffffffffffffffffffffffffffffffffff1673ffffffffffffffffffffffffffffffffffffffff16815260200190815260200160002060000160009054906101000a900460ff169050919050565b60008060149054906101000a900460ff16905090565b60008060149054906101000a900460ff1615156123a9576040517f08c379a00000000000000000000000000000000000000000000000000000000081526004018080602001828103825260258152602001807f436f6e74726163742069732063757272656e746c79206e6f74206f706572617481526020017f696f6e616c00000000000000000000000000000000000000000000000000000081525060400191505060405180910390fd5b600360003373ffffffffffffffffffffffffffffffffffffffff1673ffffffffffffffffffffffffffffffffffffffff16815260200190815260200160002060009054906101000a900460ff161515612490576040517f08c379a00000000000000000000000000000000000000000000000000000000081526004018080602001828103825260218152602001807f43616c6c6572206973206e6f7420617574686f72697a656420636f6e7472616381526020017f740000000000000000000000000000000000000000000000000000000000000081525060400191505060405180910390fd5b6124cd8686868080601f01602080910402602001604051908101604052809392919081815260200183838082843782019150505050505085612e38565b905060056000826000191660001916815260200190815260200160002060010160009054906101000a900460ff16151515612570576040517f08c379a000000000000000000000000000000000000000000000000000000000815260040180806020018281038252600c8152602001807f466c69676874206578697374000000000000000000000000000000000000000081525060200191505060405180910390fd5b60c06040519081016040528060006040519080825280602002602001820160405280156125ac5781602001602082028038833980820191505090505b5081526020016001151581526020018360ff1681526020018481526020018773ffffffffffffffffffffffffffffffffffffffff16815260200186868080601f0160208091040260200160405190810160405280939291908181526020018383808284378201915050505050508152506005600083600019166000191681526020019081526020016000206000820151816000019080519060200190612653929190612fc7565b5060208201518160010160006101000a81548160ff02191690831515021790555060408201518160010160016101000a81548160ff021916908360ff1602179055506060820151816002015560808201518160030160006101000a81548173ffffffffffffffffffffffffffffffffffffffff021916908373ffffffffffffffffffffffffffffffffffffffff16021790555060a0820151816004019080519060200190612702929190613051565b509050507f33d6803b8027609e7684ed5aca6c67f514e00df839c236c215bb89f2bdd4b2aa8686868686604051808673ffffffffffffffffffffffffffffffffffffffff1673ffffffffffffffffffffffffffffffffffffffff168152602001806020018481526020018360ff1660ff16815260200182810382528686828181526020019250808284378201915050965050505050505060405180910390a1505050505050565b60008060149054906101000a900460ff161515612854576040517f08c379a00000000000000000000000000000000000000000000000000000000081526004018080602001828103825260258152602001807f436f6e74726163742069732063757272656e746c79206e6f74206f706572617481526020017f696f6e616c00000000000000000000000000000000000000000000000000000081525060400191505060405180910390fd5b600360003373ffffffffffffffffffffffffffffffffffffffff1673ffffffffffffffffffffffffffffffffffffffff16815260200190815260200160002060009054906101000a900460ff16151561293b576040517f08c379a00000000000000000000000000000000000000000000000000000000081526004018080602001828103825260218152602001807f43616c6c6572206973206e6f7420617574686f72697a656420636f6e7472616381526020017f740000000000000000000000000000000000000000000000000000000000000081525060400191505060405180910390fd5b6129788686868080601f01602080910402602001604051908101604052809392919081815260200183838082843782019150505050505085612e38565b905060056000826000191660001916815260200190815260200160002060010160009054906101000a900460ff161515612a1a576040517f08c379a00000000000000000000000000000000000000000000000000000000081526004018080602001828103825260138152602001807f466c6967687420646f206e6f742065786973740000000000000000000000000081525060200191505060405180910390fd5b8160ff1660056000836000191660001916815260200190815260200160002060010160019054906101000a900460ff1660ff1614151515612ac3576040517f08c379a00000000000000000000000000000000000000000000000000000000081526004018080602001828103825260178152602001807f53746174757320636f6465206973207468652073616d6500000000000000000081525060200191505060405180910390fd5b8160056000836000191660001916815260200190815260200160002060010160016101000a81548160ff021916908360ff1602179055507f3f8930fd52e84bc32c0c2e5d060a9cfa59066160d5197e39f17d16ebbcaa7db68686868686604051808673ffffffffffffffffffffffffffffffffffffffff1673ffffffffffffffffffffffffffffffffffffffff168152602001806020018481526020018360ff1660ff16815260200182810382528686828181526020019250808284378201915050965050505050505060405180910390a1505050505050565b600060149054906101000a900460ff161515612c47576040517f08c379a00000000000000000000000000000000000000000000000000000000081526004018080602001828103825260258152602001807f436f6e74726163742069732063757272656e746c79206e6f74206f706572617481526020017f696f6e616c00000000000000000000000000000000000000000000000000000081525060400191505060405180910390fd5b600360003373ffffffffffffffffffffffffffffffffffffffff1673ffffffffffffffffffffffffffffffffffffffff16815260200190815260200160002060009054906101000a900460ff161515612d2e576040517f08c379a00000000000000000000000000000000000000000000000000000000081526004018080602001828103825260218152602001807f43616c6c6572206973206e6f7420617574686f72697a656420636f6e7472616381526020017f740000000000000000000000000000000000000000000000000000000000000081525060400191505060405180910390fd5b612d8381600160008573ffffffffffffffffffffffffffffffffffffffff1673ffffffffffffffffffffffffffffffffffffffff16815260200190815260200160002060010154612f5d90919063ffffffff16565b600160008473ffffffffffffffffffffffffffffffffffffffff1673ffffffffffffffffffffffffffffffffffffffff168152602001908152602001600020600101819055507fe3e3c2f23f7445131259937f93b9ed0c075fe06c9d702be2d7ac549d0ec5fc328282604051808373ffffffffffffffffffffffffffffffffffffffff1673ffffffffffffffffffffffffffffffffffffffff1681526020018281526020019250505060405180910390a15050565b6000838383604051602001808473ffffffffffffffffffffffffffffffffffffffff1673ffffffffffffffffffffffffffffffffffffffff166c0100000000000000000000000002815260140183805190602001908083835b602083101515612eb65780518252602082019150602081019050602083039250612e91565b6001836020036101000a03801982511681845116808217855250505050505090500182815260200193505050506040516020818303038152906040526040518082805190602001908083835b602083101515612f275780518252602082019150602081019050602083039250612f02565b6001836020036101000a038019825116818451168082178552505050505050905001915050604051809103902090509392505050565b60008183019050828110151515612f7057fe5b80905092915050565b600080831415612f8c5760009050612fab565b8183029050818382811515612f9d57fe5b04141515612fa757fe5b8090505b92915050565b60008183811515612fbe57fe5b04905092915050565b828054828255906000526020600020908101928215613040579160200282015b8281111561303f5782518260006101000a81548173ffffffffffffffffffffffffffffffffffffffff021916908373ffffffffffffffffffffffffffffffffffffffff16021790555091602001919060010190612fe7565b5b50905061304d91906130d1565b5090565b828054600181600116156101000203166002900490600052602060002090601f016020900481019282601f1061309257805160ff19168380011785556130c0565b828001600101855582156130c0579182015b828111156130bf5782518255916020019190600101906130a4565b5b5090506130cd9190613114565b5090565b61311191905b8082111561310d57600081816101000a81549073ffffffffffffffffffffffffffffffffffffffff0219169055506001016130d7565b5090565b90565b61313691905b8082111561313257600081600090555060010161311a565b5090565b905600a165627a7a723058207050510380843edbad772a90548e360b069f6664a8adcbb7a0c439c63ef874610029",
  "source": "pragma solidity ^0.4.25;\n\nimport \"../node_modules/openzeppelin-solidity/contracts/math/SafeMath.sol\";\n\ncontract FlightSuretyData {\n    using SafeMath for uint256;\n\n    /********************************************************************************************/\n    /*                                       DATA VARIABLES                                     */\n    /********************************************************************************************/\n\n    address private contractOwner;                                      // Account used to deploy contract\n    bool private operational = true;                                    // Blocks all state changes throughout the contract if false\n\n    struct Airline {\n        bool isRegistered;\n        uint256 funded;\n    }\n    mapping(address => Airline) private airlines;\n    uint256 private airlineCount = 0;\n\n    mapping(address => bool) private authorizedContracts;\n\n    // Passenger\n    struct Passenger{\n        mapping(bytes32 => uint256) boughtFlight;\n        uint256 credit;\n    }\n    mapping (address => Passenger) passengersFunded;\n\n    // Flights\n    struct Flight {\n        address[] insuredPassenger;\n        bool isRegistered;\n        uint8 statusCode;\n        uint256 timestamp;\n        address airline;\n        string flight;\n    }\n    mapping(bytes32 => Flight) private flights;\n\n    /********************************************************************************************/\n    /*                                       EVENT DEFINITIONS                                  */\n    /********************************************************************************************/\n\n    event AirlineRegistered(address airline, bool isRegistered);\n    event AirlineFunded(address addr, uint256 amount);\n    event FlightRegistered(address airline, string flight, uint256 timestamp, uint8 statusCode);\n    event BoughtInsurance(address airline, string flight, uint256 timestamp, address passenger, uint256 amount);\n    event FlightStatusUpdated(address airline, string flight, uint256 timestamp, uint8 statusCode);\n    event InsureeCredited(address passenger, uint256 amount);\n    event PassengerWithdrawn(address passenger, uint256 amount);\n\n    /**\n    * @dev Constructor\n    *      The deploying account becomes contractOwner\n    */\n    constructor(address airlineAdress) \n                public \n    {\n        contractOwner = msg.sender;\n        airlines[airlineAdress] = Airline({\n            isRegistered: true,\n            funded: 0\n        });\n        airlineCount++;\n\n        emit AirlineRegistered(airlineAdress, true);\n    }\n\n    /********************************************************************************************/\n    /*                                       FUNCTION MODIFIERS                                 */\n    /********************************************************************************************/\n\n    // Modifiers help avoid duplication of code. They are typically used to validate something\n    // before a function is allowed to be executed.\n\n    /**\n    * @dev Modifier that requires the \"operational\" boolean variable to be \"true\"\n    *      This is used on all state changing functions to pause the contract in \n    *      the event there is an issue that needs to be fixed\n    */\n    modifier requireIsOperational() \n    {\n        require(operational, \"Contract is currently not operational\");\n        _;  // All modifiers require an \"_\" which indicates where the function body will be added\n    }\n\n    /**\n    * @dev Modifier that requires the \"ContractOwner\" account to be the function caller\n    */\n    modifier requireContractOwner()\n    {\n        require(msg.sender == contractOwner, \"Caller is not contract owner\");\n        _;\n    }\n\n    /**\n    * @dev Modifier that requires the \"authorizedContract\" account to be the function caller\n    */\n    modifier requireCallerAuthorized()\n    {\n        require(authorizedContracts[msg.sender], \"Caller is not authorized contract\");\n        _;\n    }\n\n    /********************************************************************************************/\n    /*                                       UTILITY FUNCTIONS                                  */\n    /********************************************************************************************/\n\n    /**\n    * @dev Get operating status of contract\n    *\n    * @return A bool that is the current operating status\n    */      \n    function isOperational() \n                            public \n                            view \n                            returns(bool) \n    {\n        return operational;\n    }\n\n\n    /**\n    * @dev Sets contract operations on/off\n    *\n    * When operational mode is disabled, all write transactions except for this one will fail\n    */    \n    function setOperatingStatus(bool mode) \n                            external\n                            requireContractOwner \n    {\n        // require(operational != mode, \"Operational and new mode is not changed\");\n        operational = mode;\n    }\n\n    /********************************************************************************************/\n    /*                                     SMART CONTRACT FUNCTIONS                             */\n    /********************************************************************************************/\n\n    /********************************************************************************************/\n    // Airline\n   /**\n    * @dev Add an airline to the registration queue\n    *      Can only be called from FlightSuretyApp contract\n    *\n    */   \n    function registerAirline(address airlineAdress, bool isRegistered)\n                            external\n                            requireIsOperational\n                            requireCallerAuthorized\n    {\n        require(airlineAdress != address(0), \"invalid address\");\n        require(airlines[airlineAdress].isRegistered != isRegistered, \"Airline isRegister status is not changed\");\n        airlines[airlineAdress].isRegistered = isRegistered;\n        if (isRegistered){\n            airlineCount++;\n        } else {\n            airlineCount--;\n        }\n\n        emit AirlineRegistered(airlineAdress, isRegistered);\n    }\n\n    function fundAirline(address account, uint256 value)\n                            external\n                            requireIsOperational\n                            requireCallerAuthorized\n    {\n        airlines[account].funded = airlines[account].funded.add(value);\n\n        emit AirlineFunded(account, value);\n    }\n\n    function getFunded(address account)\n                        external\n                        view\n                        requireCallerAuthorized\n                        returns(uint256) \n    {\n        return airlines[account].funded;\n    }\n\n    function isRegistered(address account)\n                        external\n                        view\n                        requireCallerAuthorized\n                        returns(bool) \n    {\n        return airlines[account].isRegistered;\n    }\n\n    /**\n    * @dev Get number of Airline\n    *\n    */   \n    function getAirlineCount() \n                        external \n                        view \n                        returns(uint256)\n    {\n        return airlineCount;\n    }\n\n    /********************************************************************************************/\n    // Passenger\n   /**\n    * @dev Buy insurance for a flight\n    *\n    */   \n    function buyInsurance(address passenger, address airline, string flight, uint256 timestamp, uint256 value)\n                            external\n                            requireIsOperational\n                            requireCallerAuthorized\n    {\n        bytes32 flightKey = getFlightKey(airline, flight, timestamp);\n        require(flights[flightKey].isRegistered, \"Flight do not exist\");\n        passengersFunded[passenger].boughtFlight[flightKey] = passengersFunded[passenger].boughtFlight[flightKey].add(value);\n        flights[flightKey].insuredPassenger.push(passenger);\n\n        emit BoughtInsurance(airline, flight, timestamp, passenger, value);\n    }\n\n    function getInsurance(address passenger, address airline, string flight, uint256 timestamp)\n                            external\n                            view\n                            requireIsOperational\n                            returns(uint256)\n    {\n        bytes32 flightKey = getFlightKey(airline, flight, timestamp);\n        return passengersFunded[passenger].boughtFlight[flightKey];\n    }\n\n    /**\n     *  @dev Credits payouts to insurees\n    */\n    function creditInsurees(address airline, string flight, uint256 timestamp, uint256 multiplier_percentage)\n                                external\n                                requireIsOperational\n                                requireCallerAuthorized\n    {\n        bytes32 flightKey = getFlightKey(airline, flight, timestamp);\n        require(flights[flightKey].isRegistered, \"Flight do not exist\");\n        for (uint i = 0; i < flights[flightKey].insuredPassenger.length; i++) {\n            address passenger = flights[flightKey].insuredPassenger[i];\n            uint256 credit = passengersFunded[passenger].boughtFlight[flightKey].mul(multiplier_percentage).div(100);\n            passengersFunded[passenger].boughtFlight[flightKey] = 0;\n            passengersFunded[passenger].credit = credit;\n\n            emit InsureeCredited(passenger, credit);\n        }\n    }\n    \n\n    /**\n     *  @dev Transfers eligible payout funds to insuree\n     *\n    */\n    function payInsuree(address passenger)\n                external\n                payable\n                requireIsOperational\n                requireCallerAuthorized\n    {\n        require(passengersFunded[passenger].credit > 0, \"Passenger have no money\");\n        uint256 credit = passengersFunded[passenger].credit;\n        passengersFunded[passenger].credit = 0;\n        passenger.transfer(credit);\n\n        emit PassengerWithdrawn(passenger, credit);\n    }\n\n    /********************************************************************************************/\n    // Flight\n   /**\n    * @dev Initial funding for the insurance. Unless there are too many delayed flights\n    *      resulting in insurance payouts, the contract should be self-sustaining\n    *\n    */   \n    function fund\n                            (   \n                            )\n                            public\n                            payable\n                            requireIsOperational\n    {\n    }\n\n    function registerFlight(address airline, string flight, uint256 timestamp, uint8 status_code)\n                            external\n                            requireIsOperational\n                            requireCallerAuthorized\n    {\n        bytes32 flightKey = getFlightKey(airline, flight, timestamp);\n        require(!flights[flightKey].isRegistered, \"Flight exist\");\n        flights[flightKey] = Flight({\n            insuredPassenger: new address[](0),\n            isRegistered: true,\n            statusCode: status_code,\n            timestamp: timestamp,\n            airline: airline,\n            flight: flight\n        });\n        \n        emit FlightRegistered(airline, flight, timestamp, status_code);\n    }\n\n    function processFlightStatus(address airline,\n                                string flight,\n                                uint256 timestamp,\n                                uint8 status_code)\n                                external\n                                requireIsOperational\n                                requireCallerAuthorized\n    {\n        bytes32 flightKey = getFlightKey(airline, flight, timestamp);\n        require(flights[flightKey].isRegistered, \"Flight do not exist\");\n        require(flights[flightKey].statusCode != status_code, \"Status code is the same\");\n        flights[flightKey].statusCode = status_code;\n\n        emit FlightStatusUpdated(airline, flight, timestamp, status_code);\n    }\n\n    function getFlightStatus(address airline,\n                            string flight,\n                            uint256 timestamp)\n                            external\n                            view\n                            requireIsOperational\n                            returns(uint8)\n    {\n        bytes32 flightKey = getFlightKey(airline, flight, timestamp);\n        require(flights[flightKey].isRegistered, \"Flight do not exist\");\n        return flights[flightKey].statusCode;\n    }\n\n    function getFlightKey(address airline,\n                        string memory flight,\n                        uint256 timestamp)\n                        pure\n                        internal\n                        returns(bytes32) \n    {\n        return keccak256(abi.encodePacked(airline, flight, timestamp));\n    }\n\n    /**\n    * @dev Fallback function for funding smart contract.\n    *\n    */\n    function() \n                            external \n                            payable \n    {\n        fund();\n    }\n\n    \n    /**\n    * @dev 3 functions for controlling AuthorizedContracts.\n    *\n    */\n    function isAuthorizedCaller(address newContract) \n                            external \n                            view\n                            returns(bool)\n    {\n        return authorizedContracts[newContract];\n    }\n\n    function authorizeCaller(address newAppContract) \n                            external \n                            requireContractOwner\n                            requireIsOperational\n    {\n        authorizedContracts[newAppContract] = true;\n    }\n\n    function deauthorizeCaller(address authorizedContract) \n                            external \n                            requireContractOwner\n                            requireIsOperational\n    {\n        delete authorizedContracts[authorizedContract];\n    }\n}\n\n",
  "sourcePath": "/Users/duydo/Projects/Crypto/Udacity/udacity-blockchain-developer-nanodegree/4. Project 4 FlightSurety/contracts/FlightSuretyData.sol",
  "compiler": {
    "name": "solc",
    "version": "0.4.26+commit.4563c3fc.Emscripten.clang"
  },
  "schemaVersion": "3.4.6",
  "updatedAt": "2022-04-06T07:22:49.614Z",
  "networkType": "ethereum",
  "devdoc": {
    "methods": {
      "buyInsurance(address,address,string,uint256,uint256)": {
        "details": "Buy insurance for a flight    "
      },
      "creditInsurees(address,string,uint256,uint256)": {
        "details": "Credits payouts to insurees"
      },
      "fund()": {
        "details": "Initial funding for the insurance. Unless there are too many delayed flights     resulting in insurance payouts, the contract should be self-sustaining    "
      },
      "getAirlineCount()": {
        "details": "Get number of Airline    "
      },
      "isAuthorizedCaller(address)": {
        "details": "3 functions for controlling AuthorizedContracts.    "
      },
      "isOperational()": {
        "details": "Get operating status of contract",
        "return": "A bool that is the current operating status"
      },
      "payInsuree(address)": {
        "details": "Transfers eligible payout funds to insuree    "
      },
      "registerAirline(address,bool)": {
        "details": "Add an airline to the registration queue     Can only be called from FlightSuretyApp contract    "
      },
      "setOperatingStatus(bool)": {
        "details": "Sets contract operations on/off    * When operational mode is disabled, all write transactions except for this one will fail"
      }
    }
  },
  "userdoc": {
    "methods": {}
  }
}